:020000040800F2
:10000000A03800202102000801360008A7290008B6
:10001000F131000861080008413E000800000000BE
:10002000000000000000000000000000890100083E
:10003000A30A000800000000CD010008653900088F
:100040003B0200083B0200083B0200083B0200089C
:100050003B0200083B0200083B0200083B0200088C
:100060003B0200083B0200083B0200086D0A000842
:100070003B0200083B0200083B0200083B0200086C
:100080003B0200083B0200083B0200083B0200085C
:100090003B0200083B0200083B0200083B0200084C
:1000A0003B0200083B0200083B0200083B0200083C
:1000B0003B020008F5390008013A00083B0200083D
:1000C0003B0200083B0200083B0200083B0200081C
:1000D0003B0200083B0200083B0200083B0200080C
:1000E0003B0200083B0200083B02000800F002F857
:1000F00000F03AF80AA090E8000C82448344AAF188
:100100000107DA4501D100F02FF8AFF2090EBAE885
:100110000F0013F0010F18BFFB1A43F0010318473B
:100120002CB500004CB50000103A24BF78C878C147
:10013000FAD8520724BF30C830C144BF04680C60ED
:10014000704700000023002400250026103A28BF35
:1001500078C1FBD8520728BF30C148BF0B60704739
:100160001FB51FBD10B510BD00F03DF91146FFF7DA
:10017000F7FF03F0E1FE00F05BF903B4FFF7F2FFD5
:1001800003BC00F063F90000224B19680868B0E86E
:10019000F00F80F30988BFF36F8F4FF0000080F3FA
:1001A00011884EF00D0E70470000000006480068F0
:1001B000006880F3088862B661B6BFF34F8FBFF363
:1001C0006F8F00DF00BF00BF08ED00E0EFF3098094
:1001D000BFF36F8F0F4B1A6820E9F00F106008B55E
:1001E0004FF0BF0080F31188BFF34F8FBFF36F8FC5
:1001F00005F0A6FE4FF0000080F31188BDE808402E
:1002000019680868B0E8F00F80F30988BFF36F8FB2
:10021000704700BF48000020EFF3058070470000E2
:100220000948804709480047FEE7FEE7FEE7FEE78A
:10023000FEE7FEE7FEE7FEE7FEE7FEE704480549C6
:10024000054A064B70470000F1390008ED00000830
:10025000A0320020A0380020A0340020A0340020CC
:10026000032A40F2308010F0030C00F0158011F8E2
:10027000013BBCF1020F624498BF11F801CB00F8BA
:10028000013B38BF11F8013BA2F1040298BF00F80E
:1002900001CB38BF00F8013B11F0030300F071807F
:1002A000083AC0F0088051F8043B083A51F804CBF2
:1002B000A0E80810F5E7121D5CBF51F8043B40F8B8
:1002C000043BAFF30080D20724BF11F8013B11F8C3
:1002D00001CB48BF11F8012B24BF00F8013B00F807
:1002E00001CB48BF00F8012B70474FF000020429F2
:1002F000C0F0128010F0030C00F01B80CCF1040C55
:10030000BCF1020F18BF00F8012BA8BF20F8022B88
:10031000A1EB0C0100F00DB85FEAC17C24BF00F82E
:10032000012B00F8012B48BF00F8012B70474FF05C
:10033000000200B5134694469646203922BFA0E835
:100340000C50A0E80C50B1F12001BFF4F7AF090741
:1003500028BFA0E80C5048BF0CC05DF804EB890032
:1003600028BF40F8042B08BF704748BF20F8022B75
:1003700011F0804F18BF00F8012B7047704770478D
:10038000704710B5203AC0F00B80B1E81850203A01
:10039000A0E81850B1E81850A0E81850BFF4F5AF25
:1003A0005FEA027C24BFB1E81850A0E8185044BFAF
:1003B00018C918C0BDE810405FEA827C24BF51F81C
:1003C000043B40F8043B08BF7047D20728BF31F810
:1003D000023B48BF11F8012B28BF20F8023B48BF61
:1003E00000F8012B7047754600F02CF8AE4605006A
:1003F0006946534620F00700854618B020B5FFF740
:100400001DFFBDE820404FF000064FF000074FF001
:1004100000084FF0000B21F00701AC46ACE8C00922
:10042000ACE8C009ACE8C009ACE8C0098D4670472B
:1004300010B50446AFF300802046BDE81040FFF73A
:100440009CBE0000004870473C3200200149182043
:10045000ABBEFEE7260002007047000070B5044600
:1004600000688168C943C90717D1816821F001017B
:10047000816001F0EDF905460AE000BF01F0E8F9FE
:10048000401B022804D920688068C043C00706D0FA
:1004900020688068C043C007F0D0002070BDA06A0B
:1004A00040F01000A062E06A40F00100E06201202C
:1004B00070BD10B50146406A826A12F0500F05D037
:1004C000006A026BBDE8104008461047816A41F49B
:1004D0000071816201688968C1F3424107290CD12A
:1004E000017B51B9816A21F480718162816AC904FA
:1004F00003D4816A41F00101816200F023FE10BD46
:1005000010B5406A816A41F040018162C16A41F0E0
:100510000401C16200F01DFE10BD10B5406A00F07C
:1005200017FE10BDF8B500260446009600688168E5
:10053000C943C9072DD0816841F001018160164887
:1005400016490068B0FBF1F000E0401E0090002862
:10055000FBD101F07DF9054616E000BF01F078F906
:10056000401B022810D920688068C043C0070BD008
:10057000A06A40F01000A062E06A40F00100E06272
:1005800084F824600120F8BD20688068C043C0075B
:10059000E4D10020F8BD00004400002040420F00DC
:1005A000A8B0002502A8279504F03EFB824902A8C6
:1005B00004F0AAFBDFF804A2814FDFF808B2824CF6
:1005C0004FF020084FF00409012602A804F0B0F80B
:1005D000207A012803D19AF80000C00711D1A07930
:1005E000102307EB8010CDE900801A46194602A8B7
:1005F00004F0E6FA207A022803D19AF80000C00736
:1006000011D12079102307EB8010CDE900801A4624
:10061000282102A804F0D4FA207A032803D19AF8FA
:100620000000C00711D1E079102307EB8010CDE95D
:1006300000801A46462102A804F0C2FA207A042853
:1006400003D19AF80000C0070AD16079102307EBA4
:100650008010CDE900801A465E2102A804F0B0FAAD
:10066000CDE90096042319223E2102A804F01FFAC6
:10067000CDE90096042321223E2102A804F017FAB6
:1006800052A33F22002102A804F084FA51A33F2282
:10069000602102A804F086FA02A804F016FB0022EA
:1006A00027A9DBF8000005F0BDFD9DF89C0001289E
:1006B00010D1607A50B1A079A07020792070E079D3
:1006C000E070607960702572657201E02672667272
:1006D0008DF89C509DF89D00012814D1607A38B1A6
:1006E000A078A07120782071E078E0716078607166
:1006F0003A4825726572006805F050FB002005F04D
:10070000C3FB8DF89D509DF89E0001280AD1607AA8
:1007100030B1207A401CC0B22072042800D9267261
:100720008DF89E509DF89F0001287FF44EAF607AAF
:1007300038B3207A012806D0022815D0032824D007
:10074000042835D12BE0A079401CC0B2A0712179DA
:10075000032902D900F0010004E00321B0FBF1F20B
:1007600001FB1200A07123E02079401CC0B220716F
:10077000A179022906D00A21B0FBF1F201FB120097
:10078000207115E000F00300FAE7E079401CC0B2E8
:100790000621B0FBF1F201FB1200E07108E0607984
:1007A000401CC0B20A21B0FBF1F201FB12006071E3
:1007B0008DF89F5009E700006A7E0008D8000020ED
:1007C000D668000800000020E60000205365742F62
:1007D0004F4B0000E8BF94E59B9E000014000020F2
:1007E000094D0A4C0026207848B101F031F82968FB
:1007F000884204D30C21064802F07CF8267064205D
:1008000005F076FAEFE70000F8000020C8000020AD
:100810002C02002010B50C46A0B10D490D4AB1FBC9
:10082000F0F01168401EC862D0601168400848634B
:100830000C21094802F010F801F00AF80749204499
:10084000086010BDBDE810400C21034802F052B80A
:1008500040420F00E40100202C020020F80000209C
:10086000FEE7000007490A6848B1074BB3FBF0F008
:10087000401ED062C8600968400848637047002085
:1008800050637047E401002040420F002DE9F04121
:1008900007461A48007800282ED1194E8046B41C0D
:1008A0005FF0030586F8008015490222891C15486F
:1008B00000F024FD30780028FCD02088B0FBF5F152
:1008C00005FB110000EB400061883844B1FBF5F2F4
:1008D00005FB1211405C0028E4D12088B0FBF5F143
:1008E00005FB110000EB400061883844B1FBF5F2D4
:1008F00005FB121101224254BDE8F081CD00002019
:10090000F20000201C01002010B5002404E0641C4B
:10091000E4B2012000F096F800F076F8012803D048
:10092000642C0ED2002407E0642CF0D309E0641C90
:10093000E4B2012000F086F800F066F818B1642CEB
:1009400004D3012010BD642CF1D3FAE7002010BDC0
:1009500010B5002404E0641CE4B2012000F072F839
:1009600000F052F8012801D1642CF4D3002404E0F3
:10097000641CE4B2012000F065F800F045F808B905
:10098000642CF5D3282000F05DF8BDE81040042168
:10099000014800F04BBF00000008014070B5002086
:1009A00004464006050EFFF7D3FF641C2843E4B25B
:1009B000082CF6D370BD2DE9FC410D46064600F02B
:1009C00029F8FFF7A1FF10B10120BDE8FC81002448
:1009D0006F46FFF7E3FF3855641CE4B2052CF8D3EB
:1009E0009DF800109DF801009DF803300A189DF84D
:1009F000020003441A449DF804309A4201D1297040
:100A000030700020E1E700000421014800F00EBF33
:100A10000008014010B5002000F00CF8142000F090
:100A200003FE012000F006F8BDE810401E2000F093
:100A300009B8000002460421014800F004BF00008C
:100A40000008014010B54FF0E02300EBC0009969A9
:100A5000C200054C9869884201D8081A01E0201AA2
:100A600008449042F6D310BD3F190100014800F040
:100A7000CBBC00004C01002030B590F84050012460
:100A8000AC40C56B6C60046863604368102B0368FE
:100A900003D099600068C26030BD9A600068C16090
:100AA00030BD70472DE9F14F82B0442320221E2132
:100AB000029803F033FF442330221E21029803F0F2
:100AC0002DFF2F2311223421029804F073F82F23D5
:100AD00011224B21029804F06DF8DFF850A0DFF8E6
:100AE000508000254FF008094FF0150B05EB45012C
:100AF000002401EB0A070BEB0516395DB2B208EBD7
:100B0000C100CDE90090C4EBC40000EB0410253017
:100B100081B20823029804F053F8641C032CECDB28
:100B20006D1C032DE2DBBDE8FE8F0000102E0020BF
:100B3000D47100082DE9FC471D4D81461D4E2868E3
:100B40000B2200EB001000EB4000002156F8203093
:100B5000484604F01FF8002428274FF004082868AE
:100B60002044411E052912D200EB001000EB40008A
:100B700006EB8000C838CDE9007004EB840108EB77
:100B8000C10081B228231122484604F019F8641CE0
:100B9000032CE4DB0F2000902888302101EBC000FB
:100BA00081B202233C22484603F01CFEBDE8FC87CC
:100BB000C4000020986B000872B6FEE7A8B00025BC
:100BC00002A8279504F030F8294902A804F09CF8FF
:100BD000284EDFF8A480294CDFF8A4B030274FF06E
:100BE000FF394FF4005A02A803F0A2FD2078302309
:100BF00000EBC00006EB4010CDE900700022282178
:100C000002A803F0DDFF1FA33F22002102A803F08A
:100C1000C1FF1EA33F22602102A803F0C3FF02A868
:100C200004F053F84A4627A9D8F8000005F0FAFA6C
:100C30009DF89C00012808D120785146401C00F006
:100C400001002070584600F0F6FD9DF89D00012837
:100C5000C9D1257001225146584600F0F4FD0D48D7
:100C6000006805F09BF8002005F00EF9BBE70000D6
:100C70006A7E0008946F000800000020C900002070
:100C8000001001404F4E2F4F46460000E8BF94E54C
:100C90009B9E0000140000207CB50022042101204E
:100CA00005F09EF9494C002301222060484800903D
:100CB0004FF47A7147A005F021FD6060474800902D
:100CC000002301224FF4FA7145A005F017FDA06042
:100CD00005F088FB0025024600952B46012160683F
:100CE00005F050FD05F07EFB024600950023012132
:100CF000A06805F047FD04F10C001224CDE9004086
:100D00000023802238A13B4805F030FB2F48002308
:100D10001030CDE90040802237A13A4805F026FB8B
:100D20002A4800231430CDE90040802236A13948FA
:100D300005F01CFB254917201831CDE900010023DF
:100D4000802235A1374805F011FB204800231C30D4
:100D5000CDE90040802234A1374805F007FB1B484D
:100D600000232030CDE90040802234A1374805F02F
:100D7000FDFA164800232430CDE90040802234A13A
:100D8000364805F0F3FA114800232830CDE9004039
:100D9000802233A1354805F0E9FA0C4800232C30B5
:100DA000CDE90040802232A1354805F0DFFA07483E
:100DB00000233030CDE90040802232A1344805F0D4
:100DC000D5FABDE87C4005F033B8000000000020F3
:100DD000653E0008636C6F636B000000293F0008EC
:100DE000666C69636B657200746573747461736BB0
:100DF00000000000F146000854696D655461736B92
:100E000000000000513C00084D656E755461736B25
:100E100000000000F5310008416C61726D5461738F
:100E20006B000000E1070008416C61726D5365744E
:100E30005461736B00000000A1050008466C6173EB
:100E4000686C696768745461736B0000BD0B0008BF
:100E500047616D655461736B00000000950E0008DA
:100E60004D757369635461736B000000A93300080A
:100E700048756D69747572655461736B000000008C
:100E8000A929000853657474696E675461736B0017
:100E90007D360008A8B0002501A8269503F0C4FE01
:100EA000604901A803F030FF0C26DFF87C81DFF8F1
:100EB0007C915F4C13274FF0010A01A803F038FC26
:100EC000012101A803F018FF01A8FFF7EBFD20782E
:100ED00090B1012804D0022806D003280CD105E0E7
:100EE0000B2254A32E2104E054A300E054A30B22B0
:100EF000382101A803F04EFE012101A803F0FCFEF9
:100F00000096A0880C2307EB001082B22089C0EB6A
:100F1000C00101EB0010233081B201A803F082FC74
:100F2000207BC00713D0002101A803F0E5FE009646
:100F3000A0880C2307EB001082B22089C0EBC0010F
:100F400001EB0010233081B201A803F06BFC01A873
:100F500003F0BBFE002226A9D8F8000005F062F9D4
:100F60009DF89800012823D16078F8B9606800EBFB
:100F70004001A06849440A5CC2B902220A542B48C5
:100F800002F03FFB28B1294802F03BFB207084F8B7
:100F900001A02648FFF77AFC244802F032FB28B172
:100FA000224802F02EFB207084F801A08DF89850A2
:100FB0009DF8990001281BD12570657000214A46D3
:100FC00001EB4103002013441D54401C0328FBDBAC
:100FD000491C0329F4DB1B48C4F804A0C4F808A08A
:100FE000006804F0DBFE002004F04EFF8DF89950FD
:100FF0009DF89A00012807D16068401C60600228B3
:1010000000DD65608DF89A509DF89B0001287FF403
:1010100054AFA068401CA060022800DDA5608DF8D8
:101020009B504AE7A076000800000020102E002008
:10103000CC000020446566656174000057696E004D
:101040005469650014000020F8B50024009490F85D
:1010500024202546012A12D0012280F824204A6843
:101060001F23072A0DD20668776B521E02EB8202FD
:1010700093409F430B6893401F43776319E002201E
:10108000F8BD06680D2A0AD2376BD21F02EB820226
:1010900093409F430B6893401F43376309E0F76A0F
:1010A0000D3A02EB820293409F430B6893401F432B
:1010B000F7620A68072306680A2A0AD3F7680A3A19
:1010C00002EB420293409F438B6893401F43F760BB
:1010D00008E0376902EB420293409F438B689340DC
:1010E0001F4337610A68102A01D0112A20D1124B00
:1010F00002689A4217D193681B0219D4936843F48B
:10110000000393600968102912D10C490C4A096840
:10111000B1FBF2F101EB8101490000E0491E0091B1
:101120000029FBD104E0816A41F0200181620124A1
:1011300080F824502046F8BD0024014044000020DF
:1011400040420F000149012008707047F200002062
:10115000704770472DE9F0414FF0000704003D460D
:101160007ED0A06A002628B9E66284F82460204672
:1011700000F07EF82046FFF771F9A16AC90600D495
:1011800020B1A06A40F01000A06269E0A16A21F4D9
:10119000885141F00201A1626268E169237B0A4340
:1011A00047EA43010A43A1684FF48077B94209D066
:1011B000012907D05FF0000194F814C0BCF1010FC1
:1011C00002D00AE03946F7E7F3B1A36A43F02003FF
:1011D000A362E36A43F00103E3622368D3F804C027
:1011E0002CF4694C4CEA010CC3F804C021688B68EC
:1011F000DFF870C003EA0C0313438B60A168B942A7
:101200000BD0012909D00CE0DFF85CC0A3690CEB1E
:1012100043330B4343F40061DFE7218A0D05A5F555
:1012200080152168CB6A23F470032B43CB622168BD
:1012300089680E4B1940914208D1E662A16A21F0FB
:10124000020141F00101A162BDE8F081A06A20F035
:10125000020040F01000A062E06A40F00100E0628D
:101260000120F1E7FDF7E1FF00E0FFFFFE0E1FFFA9
:1012700070B586B000250646009501950295039548
:101280000068194988422DD11849886940F40070D6
:101290008861886900F400700490886940F0040057
:1012A00088618869694600F004000490032000907A
:1012B00001900F4800F0CAF90F4C0E48C4E9000530
:1012C0008020C4E90250400020618000C4E9050587
:1012D0008000E061204600F041F908B1FFF76CFCA6
:1012E0003462666206B070BD002401400010024006
:1012F00000080140080002404C0100202DE9F047A1
:10130000894604463B4900683B4F0E1D9046884283
:1013100001D0B84207D1306810F4702F03D00125F6
:101320002846BDE8F08794F8240001280CD001205D
:1013300084F824002046FFF7F5F805004FF0000080
:1013400004D084F82400EBE70220EAE7A16A40F623
:101350000162914341F48071A1622168B94218D1C0
:10136000326812F4702F14D0A16A41F48011A16286
:101370003168490505D5A16A21F4005141F4805135
:10138000A162A16AC9040AD5E16A21F00601E162FD
:1013900006E0A26A22F48012A2624968E9E7E062EC
:1013A00084F82400216A15488862216A1448C862BA
:1013B000216A1448086321686FF002000860206801
:1013C000816841F480718160216843464A464C310E
:1013D000206A00F0F1F820688168C1F342410729D2
:1013E000816803D041F48011816099E741F4A00144
:1013F000FAE700000024014000280140B30400087F
:101400001B050008010500082DE9F05FC16B0C68A1
:1014100001680B68D0F840C0042202FA0CF2494D72
:10142000DFF824A1494E4A4FDFF828B1DFF828E160
:1014300022422CD05A072AD50A68920603D40A6899
:1014400022F004020A600168A94201D1042219E0D5
:10145000514501D1402215E0B14202D14FF48062E2
:1014600010E0B94202D14FF480420BE0594502D15D
:101470004FF4802206E0714502D14FF4800201E072
:101480004FF080622F4908394A60C16A3BE04FF053
:10149000020808FA0CF818EA040F4FF000094FF0A0
:1014A000010235D05FEA837832D50B689B0605D4FC
:1014B0000B6823F00A030B6080F821200168A94221
:1014C00001D1022219E0514501D1202215E0B1429B
:1014D00002D14FF4007210E0B94202D14FF4005231
:1014E0000BE0594502D14FF4003206E0714502D1BC
:1014F0004FF4001201E04FF00072124908394A60BF
:1015000080F82090816A00291AD0BDE8F05F084772
:10151000082505FA0CF5254212D01B0710D50B68DB
:1015200023F00E030B6090F84010C36B02FA01F138
:101530005960826380F8212080F82090016BE2E7F7
:10154000BDE8F09F080002401C000240300002404D
:1015500044000240580002406C00024030B528B3FD
:1015600008C8134914221944B1FBF2F18900C16380
:1015700010498163022141771A6843F6F0718A436A
:10158000D0E900142143D0E902452C4321430469EA
:101590002143446921438469214311431960002197
:1015A0004163012242770177084630BD012030BDFA
:1015B000F8FFFDBF0000024070B5044690F820001F
:1015C000002501280CD0012084F8200094F8216027
:1015D0000020012E06D084F820000225284670BD88
:1015E000022070BD022684F82160A063206806688E
:1015F00026F0010606602046FFF73EFAE06A002862
:101600002068016802D041F00E0106E021F00401DB
:1016100001602068016841F00A01016020680168EA
:1016200041F001010160D9E770B5044600F010F9FE
:101630000546601C02D004480078044400F008F914
:10164000401BA042FAD370BD380000202DE9F84FAE
:10165000DFF8B8910024A9F1040B23460F2709F104
:10166000040AABF1040EC9E00125A5402A40AA42B4
:101670007DD1674ED1F804C0ACEB0608B44532D03A
:1016800014DCBCF1030F3AD009DCBCF1000F2AD006
:10169000BCF1010F1CD0BCF1020F31D11DE0BCF137
:1016A000110F17D0BCF1120F2AD119E0B8F5881F1D
:1016B00019D006DCB8F5803F15D0B8F5801F1FD1D2
:1016C00011E0B8F5001F0ED0B8F5041F18D10AE0DC
:1016D000CB6815E0CB681B1D12E0CB6808330FE028
:1016E000CB680C330CE08B682BB1012B4FF0080357
:1016F00003D0456104E0042302E0056100E000231B
:10170000FF2A01D8064601E000F104064FEA8405ED
:1017100001D9A5F12005D6F8008007FA05FC28EAD2
:101720000C0803FA05F548EA0508C6F800804D687C
:10173000ED0062D5374DAE6946F00106AE61AD6988
:1017400024F0030605F001050095334D06EB050C6A
:10175000DCF80850A607360F07FA06F825EA080550
:10176000DFF8B880404503D14FF0000817E044E0AF
:10177000DFF8AC80404502D14FF001080FE0DFF800
:10178000A480404502D14FF0020808E0DFF89880BD
:10179000404502D14FF0030801E04FF0040808FA79
:1017A00006F848EA0508CCF808804D68D9F80060CA
:1017B000ED024D4601D5164300E096432E604D687C
:1017C000DAF80060AD02554601D5164300E09643B5
:1017D0002E604D68DBF80060AD035D4601D5164311
:1017E00000E096432E604D68DEF80060ED0375461C
:1017F00001D5164300E096432E60641C0D682A460E
:10180000E5407FF431AFBDE8F88F000008040140E7
:1018100000001110001002400000014000080140CB
:10182000000C014000100140001401408068084095
:1018300000D001207047C26821EA02030A4043EA4F
:101840000241016170470AB1016170470904FBE779
:1018500001488068704700003800002070B504001F
:1018600025D094F83D00002520B984F83C5020464E
:1018700000F04EF9242084F83D002068016821F032
:10188000010101602068016841F4004101602068A5
:10189000016821F40041016000F058FB4D4A616885
:1018A000914201D84C4900E04C49884201D20120C4
:1018B00070BD4B492368B0FBF1F15E6826F03F062E
:1018C0000E435E606368934206D94FF496735943A2
:1018D0004FF47A73B1FBF3F12368491C1E6A26F0BA
:1018E0003F06314319626168914210D84900401E99
:1018F000B0FBF1F2521CC2F30B02042A01D2042005
:1019000022E0B0FBF1F0401CC0F30B001CE0A26829
:10191000F2B301EBC10303EB0116431EB3FBF6F375
:101920005B1C43F480431B0549D092B301EBC10219
:1019300002EB0111401EB0FBF1F0401CC0F30B00A4
:1019400040F4804040F400402168CA694CF6FF73BF
:101950009A431043C861D4E9071001432068026824
:1019600022F0C00211430160D4E903010143206861
:10197000826848F2FF339A4311438160D4E905013C
:1019800008432168CA6822F0FF021043C86001E0E2
:101990000EE016E02068016841F001010160256455
:1019A000202084F83D00256384F83E50002070BD5F
:1019B00001EB4106431EB3FBF6F35B1CB3E70120CA
:1019C000C2E701EB4101401EB0FBF1F0401CC0F347
:1019D0000B00B7E7A086010080841E0000093D00CF
:1019E00040420F002DE9F84F1F4690468A460446B4
:1019F000DDF82890FFF72CFF054694F83D002028DD
:101A00007FD11923012240492046009501F0F0F8CA
:101A1000002876D194F83C00012872D0012084F887
:101A20003C0020680168C90703D1016841F0010149
:101A300001602068016821F400610160212084F8C0
:101A40003D00102084F83E0000262664C4F824805F
:101A50006785608D20852D48E0622B464A465146B9
:101A6000204601F04BF890B92068416980690090E8
:101A700036E02A464946204601F060F950B1206C14
:101A8000042804D12068016841F40071016001203C
:101A9000BDE8F88F606A216800780861606A401CC0
:101AA0006062618D491E6185218D491E89B2218543
:101AB00022685369DB435B070BD451B10078106196
:101AC000606A401C6062608D401E6085208D401EF3
:101AD00020852A464946204601F05EF80028CED1EE
:101AE000208D0028C5D154F83D0B016841F40071E8
:101AF0000160202004F81E09E67766770020C7E71A
:101B0000FFE70220C4E70000020010000000FFFF12
:101B100010B586B0002100910191029103910068F7
:101B20000F4988421AD10F4CA06940F00800A0610B
:101B3000A069694600F008000490C02000901220BF
:101B40000190032003900848FFF780FDE06940F40E
:101B50000010E061E06900F40010049006B010BDD0
:101B60000054004000100240000C0140024881680F
:101B7000027811448160704738000020074810B592
:101B8000016841F010010160032000F0A1F801207C
:101B900000F006F800F050F8002010BD00200240D0
:101BA00030B505461F4887B0C16941F00401C161E5
:101BB000C06906A900F00400009001A800F0A6F991
:101BC0000498B0B100F0C2F940001749174AB0FBC1
:101BD000F1F11748491E0260416040F2E7320021EE
:101BE000C0E903218160816100F0D6FB040003D0CD
:101BF00015E000F0ABF9E8E70D4800F031FC040017
:101C00000DD11E2000F036F8102D07D200222946F3
:101C10001E2000F03DF80748056000E0012407B0F1
:101C2000204630BD0010024040420F000008004036
:101C3000BC0200203C0000200C4808B5816941F03E
:101C400001018161816901F001010091C16941F0E7
:101C50008051C161C06900F0805000900448416823
:101C600021F0E06141F00071416008BD00100240C8
:101C700000000140002809DB00F01F020121914013
:101C80004009800000F1E020C0F80011704700001A
:101C9000F0B40E4B1B680C46C3F30223C3F10705D7
:101CA000042D00D90425191D072901D2002300E0C5
:101CB000DB1E012606FA05F1491E214099409E408F
:101CC000761E16403143F0BC02F0BBB80CED00E0CC
:101CD000064900F0070208684FF6FF03184040EA83
:101CE0000220034A10430860704700000CED00E03A
:101CF0000000FA052DE9F84305460078354CC00789
:101D000054D0E0690026C00008D4E06940F080505B
:101D1000E061E069012600F0805000902E480168E3
:101D2000C90512D40168804641F480710160FFF753
:101D30008FFD074605E000BFFFF78AFDC01B642842
:101D400023D8D8F80000C005F6D5206A10F44070FA
:101D500021D0A98801F4407181421CD0206A1F491A
:101D6000012220F440700A6000220A602062C0074D
:101D700011D0FFF76DFD074641F2883808E000BF3B
:101D8000FFF766FDC11B414502D90320BDE8F8837A
:101D9000206A8007F4D5206A696820F440700843FF
:101DA00020621EB1E06920F08050E0612878800751
:101DB00005D56068A96820F4404008436060287831
:101DC000C00605D56068E96820F4800008436060BB
:101DD0000020DBE700100240007000404004424257
:101DE0002DE9F0470F46050061D0434E306800F002
:101DF0000700B84209D2306820F00700384330604D
:101E0000306800F00700B84251D128683B4C810788
:101E100012D5400703D5606840F4E0606060287820
:101E2000000703D5606840F4605060606068A9688E
:101E300020F0F000084360602878C00728D0686868
:101E4000012810D02168022810D0890700292EDA35
:101E5000616821F0030101436160FFF7F9FC8046EE
:101E600041F288390DE021688903EFE78901EDE748
:101E7000FFF7EEFCA0EB0801494502D90320BDE8BD
:101E8000F0876068696800F00C00B0EB810FEFD15B
:101E9000306800F00700B8420BD9306820F0070026
:101EA00038433060306800F00700B84201D00120AC
:101EB000E5E72878400705D56068E96820F4E06028
:101EC000084360602878000706D56068296920F417
:101ED000605040EAC100606000F048F86168084A5C
:101EE000C1F30311515CC840064908600648006808
:101EF000FFF756FE0020C2E700200240001002401B
:101F0000DE670008440000203C0000200F22026031
:101F10000C4A536803F003034360536803F0F00373
:101F20008360536803F4E063C36052684FF4E06376
:101F300003EAD20202610448006800F0070008606A
:101F4000704700000010024000200240044805498C
:101F500000684968044AC1F30221515CC8407047D7
:101F60004400002000100240EE6700080E4A51684D
:101F70000E4801F00C03042B11D0082B0FD10C4894
:101F8000C1F38343C903C05C0AD55168084AC1F351
:101F90004041921E515C054A5043B0FBF1F070473E
:101FA00004494843704700000010024000127A00C4
:101FB000CE67000800093D002DE9F84F040070D0FD
:101FC0002078C04DC00749D06868C0F3810001285F
:101FD00007D06868C0F38100022809D16868C0038F
:101FE00006D52868800339D560680028E7D035E039
:101FF0006068B0F5803F0BD010B1B0F5A02F11D0C4
:10200000286820F480302860286820F4802002E0CE
:10201000286840F480302860606890B1FFF718FCB1
:1020200006460AE0286840F480202860F0E700BFF8
:10203000FFF70EFC801B642873D828688003F7D54F
:102040000CE0FFF705FC064605E000BFFFF700FCCB
:10205000801B6428F0D828688003F7D420789A4E33
:1020600080074FF001094FF0000839D5686810F07B
:102070000C0F07D06868C0F38100022809D1686896
:10208000C00306D42868800714D52069012808D128
:1020900010E02069B0B1C6F80090FFF7D9FB074601
:1020A00005E00AE1FFF7D4FBC01B0228C4D828686A
:1020B0008007F7D52868616920F0F80040EAC10080
:1020C00028600DE0C6F80080FFF7C2FB074604E079
:1020D000FFF7BEFBC01B022823D828688007F7D46F
:1020E000207800072CD57948A169D9B1C0F80090B3
:1020F000FFF7AEFB074604E0FFF7AAFBC01B022870
:102100000FD8686A8007F7D571484FF4FA51006814
:10211000B0FBF1F0009000BF0098411E0091FAD290
:102120000EE080E0C0F80080FFF792FB074604E075
:10213000FFF78EFBC01B022875D8686A8007F7D4AA
:102140002078400760D5E8690027C00008D4E86916
:1021500040F08050E861E869012700F0805000906D
:102160005C480168C90513D40168834641F4807155
:102170000160FFF76DFB824606E000BFFFF768FBDA
:10218000A0EB0A0064284ED8DBF80000C005F5D5A6
:10219000E06801280AD008B1052813D0286A20F089
:1021A00001002862286A20F0040002E0286A40F05A
:1021B00001002862E06841F2883B98B1FFF748FBD4
:1021C00082460BE0286A40F004002862EEE700BF78
:1021D000FFF73EFBA0EB0A0159455AD8286A800751
:1021E000F6D50CE0FFF734FB824605E0FFF730FB45
:1021F000A0EB0A0159454CD8286A8007F6D41FB1D4
:10220000E86920F08050E861E06988B36968C1F34B
:102210008101022944D00228C6F8608004D0FFF76B
:1022200017FB044638E034E0FFF712FB074604E0F2
:10223000FFF70EFBC01B02282BD828688001F7D4BB
:10224000206AB0F5803F05D16868A16820F40030AD
:1022500008436860D4E908010843696821F47411EF
:1022600008436860C6F86090FFF7F2FA044606E09B
:1022700025E000BFFFF7ECFA001B022809D8286808
:102280008001F7D51BE000BFFFF7E2FA001B022830
:1022900002D90320BDE8F88F28688001F4D40EE04D
:1022A0000128F7D06868226A00F48031914204D195
:1022B000616A00F47010884201D00120EAE7002032
:1022C000E8E7000000100240000042428004424261
:1022D00044000020007000407047704710B590F82F
:1022E0003C20012A22D0012280F83C20CA688C6858
:1022F00022F4407222434C6822F4806222430C682C
:1023000022F4006222430C6922F4805222434C6979
:1023100022F400522243C969002322F480420A4376
:1023200001684A6480F83C30002010BD022010BDD6
:1023300070B590F83C20012A26D0012480F83C405A
:10234000022280F83D2003685A689D6822F07006DA
:102350000A6832435A600D4B02689A4208D0B2F1C3
:10236000804F05D00A4B9A4202D00A4B9A4204D1C0
:10237000496825F080031943916080F83D400021B1
:1023800080F83C10084670BD022070BD002C014052
:10239000000400400008004010B5040003D094F889
:1023A0003D0010B107E0012010BD002084F83C0082
:1023B000204600F01FF8022084F83D00211D20680F
:1023C00001F024FB012084F8460084F83E0084F8E4
:1023D0003F0084F8400084F8410084F8420084F80B
:1023E000430084F8440084F8450084F83D00002050
:1023F00010BD000008B5174A01681748914207D17F
:10240000816941F400618161806900F400601EE02F
:10241000B1F1804F14D0114A914219D1C16941F0F4
:102420000201C161C069002200F002000090114663
:102430001D20FFF72DFCBDE808401D20FFF71ABC4A
:10244000C16941F00101C161C06900F00100009063
:1024500008BD0000002C01400010024000040040B4
:1024600090F83D10012901D001207047022180F829
:102470003D100168CA6842F00102CA6000680B4959
:10248000884208D0B0F1804F05D00949884202D077
:102490000849884204D1816801F00701062903D068
:1024A000016841F00101016000207047002C0140EB
:1024B000000400400008004070B5044690F83C005D
:1024C0000025012817D0012684F83C60022084F8FA
:1024D0003D002068826822F0770222F47F42826009
:1024E0000868502838D00DDC20284FD005DC90B388
:1024F000102811D14AE0022070BD302846D0402873
:102500000AD13BE060282FD070280DD0B0F5805F55
:1025100003D0B0F5005F12D0012584F83D600020A3
:1025200084F83C00284670BDCB68D1E901212068C1
:1025300001F0B5FA2068816841F0770109E0CB68C5
:10254000D1E90121206801F0AAFA2068816841F4EC
:1025500080418160E1E719E0CA684968206801F0BC
:1025600053FB5021206806E0CA684968206801F0E2
:102570005CFB6021206801F09CFACEE7CA684968DC
:10258000206801F041FB40212068F4E72268014601
:102590001046F0E770472DE9F04104460068C66830
:1025A00005694FF00007A90713D5B10711D5F91E2A
:1025B000016101202077206880698007204602D0D1
:1025C000FFF7E8FF04E000F0B1F8204600F043F91F
:1025D0002777680716D5700714D521686FF00400B7
:1025E0000861022020772068806910F4407F20462F
:1025F00002D0FFF7CFFF04E000F098F8204600F08B
:102600002AF92777280715D5300713D521686FF0E9
:1026100008000861042020772068C06980072046F0
:1026200002D0FFF7B7FF04E000F080F8204600F08A
:1026300012F92777E80616D5F00614D521686FF051
:1026400010000861082020772068C06910F4407FDE
:10265000204602D0FFF79EFF04E000F067F8204616
:1026600000F0F9F82777E80708D0F00706D02168CE
:102670006FF001000861204600F074F9280608D5C3
:10268000300606D521686FF0800008612046FFF70C
:1026900023FE680608D5700606D521686FF0400055
:1026A0000861204600F07EF9A8060AD5B00608D5D4
:1026B00021686FF0200008612046BDE8F041FFF777
:1026C0000CBEBDE8F081000010B586B0002100917D
:1026D000019102910391124C03681249022212489F
:1026E000A34209D18B6943F004038B61896901F02E
:1026F0000401049181150BE0B3F1804F0ED18B6979
:1027000043F004038B61896901F0040104910821FD
:10271000CDE9001269460392FEF798FF06B010BD9E
:10272000002C01400010024000080140704770B5C5
:10273000044690F83C0000260D4601280FD00120E9
:1027400084F83C006AB1042A1DD0082A2FD00C2A34
:102750003FD00126002084F83C00304670BD0220A6
:1027600070BD206801F0AEF92068816941F0080170
:1027700081612068816921F004018161206881699B
:102780002A69114311E0206801F0C4F920688169C9
:1027900041F4006181612068816921F48061816177
:1027A000206881692A6941EA02218161D2E72068B3
:1027B00001F0DCF92068C16941F00801C1612068BD
:1027C000C16921F00401C1612068C1692A6911430E
:1027D00011E0206801F0F6F92068C16941F4006158
:1027E000C1612068C16921F48061C1612068C1694B
:1027F0002A6941EA0221C161ACE710B5040003D0A7
:1028000094F83D0010B107E0012010BD002084F8CD
:102810003C00204600F01EF8022084F83D00211DF7
:10282000206801F0F3F8012084F8460084F83E00A7
:1028300084F83F0084F8400084F8410084F84200A6
:1028400084F8430084F8440084F8450084F83D008F
:10285000002010BD7047704710B50446022249B1F0
:1028600004290ED0082913D094F84100012816D06D
:10287000012010BD94F83E000128F9D184F83E20D3
:102880000FE094F83F000128F2D184F83F2008E0DF
:1028900094F840000128EBD184F8402001E084F84E
:1028A00041200122206801F0EDF80F49206888429C
:1028B00003D1426C42F4004242642068884208D04E
:1028C000B0F1804F05D00949884202D008498842BA
:1028D00004D1816801F00701062903D0016841F0A5
:1028E00001010160002010BD002C014000040040E7
:1028F0000008004030B504460D460068002201F093
:10290000C1F8174B41F2111120688A10984209D181
:10291000036A0B4206D1036A134203D1436C23F4CA
:10292000004343642068036A0B4206D1016A1142E6
:1029300003D1016821F00101016001203DB1042DA6
:1029400008D0082D09D084F84100002030BD84F85B
:102950003E00FAE784F83F00F7E784F84000F4E728
:10296000002C014010B5044600680B49884201D193
:10297000FFF7FCF80949206888420CD10848017823
:10298000491CC9B20170142905D100210170BDE8AC
:10299000104000F035BA10BD0008004000040040AF
:1029A000340000207047FEE7A8B04FF0000802A8EE
:1029B000CDF89C8002F038F93D4902A802F0A4F954
:1029C000DFF8F0A0DFF8F0B04FF0100902A801F036
:1029D000AFFECDE9009A4C4620230022102102A828
:1029E00002F0EEF8CDE9004B20230022502102A88E
:1029F00002F0E6F83149481EFDF7DDFFE0BB2F4C41
:102A00000A25641E2E4E20782027B0FBF5F006EB39
:102A10008010CDE90070102318220C2102A802F0CA
:102A2000CFF820781023B0FBF5F105FB110006EB81
:102A30008010CDE900701822222102A802F0C0F80F
:102A400060781023B0FBF5F006EB8010CDE9007044
:102A500018224C2102A802F0B3F860781023B0FBD2
:102A6000F5F105FB110006EB8010CDE9007018228E
:102A7000622102A802F0A4F802A802F026F94FF49D
:102A80007A7003F035F90F48002227A9006803F097
:102A9000C9FB9DF89D00012898D10B48006803F000
:102AA0007DF9002003F0F0F98DF89D808EE700009D
:102AB0006A7E00082076000860760008DD000020AD
:102AC000D6680008000000201400002001684A6950
:102AD000D24352050FD46FF480624A61002140F85E
:102AE000301F202242738173026942F004020261A6
:102AF000017301207047002070470000F8B50446BC
:102B0000C06A1E460D461746082807D0012805D082
:102B100010F5803F02D0206B122804D12068016894
:102B200041F480710160134600224FF001112046EC
:102B3000009600F05DF840B120680068C00502D53D
:102B40004FF4007020640320F8BD2069B0F5804F79
:102B50000ED00620216800EAD51040F0F000086190
:102B600033463A460B49204600F08AF878B902E02D
:102B700005F0FE0000E0E8B221680861054933462F
:102B80003A46891F204600F07BF80028DCD001205F
:102B9000F8BD00000800010070B516460D46044659
:102BA0001EE02046FFF792FF08B1012070BD681CAF
:102BB00016D0FEF74DFE801BA84200D885B92068CC
:102BC0004069C04340070BD5002044F8300F202156
:102BD0006173A073216941F0200121612073E4E752
:102BE00020684069C0434007DBD4002070BD00006E
:102BF0002DE9F047984617460D460446C1F30746AF
:102C0000DDF820902AE000BFB8F1FF3F26D0FEF7A4
:102C10001FFEA0EB0901414502D8B8F1000F1DD1FC
:102C20002068012E16D0806925EA00000004000CFF
:102C300012D00020B84211D1002044F8300F2021DA
:102C40006173A073216941F020012161207301208B
:102C5000BDE8F0874069E7E70120EBE72068012E37
:102C60000AD0806925EA00000004000C06D000208C
:102C7000B842C9D00020EBE74069F3E70120F7E74D
:102C80002DE9F047984616460D4604464FF00009D8
:102C90004FF0200AC1F3074723E020684069C04392
:102CA000400515D42068016841F400710160216875
:102CB0006FF480604861C4F8309084F83DA084F8D7
:102CC0003E90216C41F00401216484F83C9021E0A5
:102CD000701C06D0FEF7BCFDA0EB0800B04203D884
:102CE00016B1012F1FD021E02068012F15D0806977
:102CF00025EA00000004000C18D000BF44F8309F03
:102D000084F80DA084F80E90216941F02001216122
:102D100084F80C900120BDE8F087406925EA0000A6
:102D20000004000CEAD12068406901E02068806955
:102D300025EA00000004000CAFD1ECE770B51646A0
:102D40000D4604461EE02046FFF7C0FE08B10120F4
:102D500070BD681C16D0FEF77BFD801BA84200D812
:102D600085B920684069C04300060BD5002044F8AF
:102D7000300F20216173A073216941F0200121618E
:102D80002073E4E720684069C0430006DBD40020DC
:102D900070BD10B5002202EB4203002103445C5CCD
:102DA0003CB1491C0329FADB521C032AF3DB012046
:102DB00010BD002010BD000010B5104C4FF4006194
:102DC0002046FEF733FD80B121152046FEF72EFD8B
:102DD00068B102212046FEF729FD50B101212046AD
:102DE000FEF724FD38B1002010BD012010BD0220E7
:102DF00010BD032010BD042010BD0000000C0140D8
:102E0000F8B5214C20786070FFF7D6FF20700021C4
:102E10000091617801251D4E012909D1002831D189
:102E20008DF8005000231A466946306803F0C2F955
:102E3000607802280AD12078002823D18DF801502B
:102E400000231A466946306803F0B4F96078032815
:102E50000AD12078002815D18DF8025000231A4697
:102E60006946306803F0A6F9607804280AD1207812
:102E7000002807D18DF8035000231A4669463068B0
:102E800003F098F9F8BD0000F000002000000020D9
:102E90003EB5002416480094019414490294016040
:102EA0008915816004730475022505614FF4602162
:102EB0004460C161FEF74EF908B1FDF77DFE009454
:102EC000012469460A48CDE90145FEF7BDF808B17D
:102ED000FDF772FE69460648CDE90045FEF7B4F8F5
:102EE000002801D0FDF768FE3EBD0000002401402F
:102EF0001C010020094808B5416941F00101416108
:102F00004069002200F00100009011460B20FEF7FE
:102F1000BFFEBDE808400B20FEF7ACBE001002402B
:102F20002DE9F04186B000242848009401940294D1
:102F30000394816941F010018161816901F0100100
:102F40000491816941F020018161816901F02001D2
:102F50000491816941F004018161816901F00401FA
:102F60000491816941F0080181618069012200F0CA
:102F70000800174F5503049029463846FEF763FCB6
:102F8000DFF85080012204214046FEF75CFC112648
:102F9000CDE90056022569463846CDE90245FEF7DF
:102FA00055FB0420CDE900060126CDE902656946FE
:102FB0004046FEF74BFB40F603408DE85100694662
:102FC0000548FEF743FB06B0BDE8F0810010024063
:102FD0000010014000080140000C01400D4810B5F0
:102FE0000B4901600C49416000214FF4804281602F
:102FF000C0E9031241618161C1610162FEF72EFCEB
:10300000002803D0BDE81040FDF7D6BD10BD00007C
:103010000054004090010020801A060010B596B0C0
:1030200000240F9410941194129413941C2108A856
:103030001494FDF77CF920216846FDF778F92A48B9
:10304000284901604721C0E9011440F2E731C0E995
:1030500003148021C0E90541FFF79EF908B1FDF78F
:10306000ABFD4FF480500F900FA91F48FFF724FAD3
:1030700008B1FDF7A1FD1C48FFF7BFFB08B1FDF744
:103080009BFD139413A918481494FFF751F908B144
:10309000FDF792FD6020089040F2F310CDE909049D
:1030A0000B940C940D94002208A90F480E94FFF77E
:1030B0003EFB08B1FDF780FD00944FF40050CDE9D0
:1030C0000440029401940394694607480794FFF76B
:1030D00005F908B1FDF770FD0348FFF7F5FA16B0E2
:1030E00010BD0000002C0140E401002010B58EB09E
:1030F00000240794089409940A940B941C216846B0
:103100000C94FDF714F91F484FF0804101604721EE
:10311000C0E9011440F2E731C0E903148021816164
:10312000FFF73AF908B1FDF747FD4FF480500790DB
:1031300007A91448FFF7C0F908B1FDF73DFD114894
:10314000FFF75BFB08B1FDF737FD0B940BA90D48AA
:103150000C94FFF7EDF808B1FDF72EFD602000900C
:1031600040F2F310CDE901040C22694605480494AD
:10317000FFF7DDFA08B1FDF71FFD0248FFF7A4FADB
:103180000EB010BD2C02002010B586B000241748E8
:1031900000940194029403940494134905940160EB
:1031A00041F61F41C0E901140921C0E9031480213F
:1031B0008161FFF7F1F808B1FDF7FEFC4FF4805094
:1031C000009069460948FFF777F908B1FDF7F4FC6C
:1031D000049404A905480594FFF7AAF8002801D033
:1031E000FDF7EAFC06B010BD0004004074020020A8
:1031F000FEE70000A8B0002502A8279501F014FD05
:103200005B4902A801F080FDDFF868814FF01009EA
:103210004FF0010A4FF0020B302602A801F088FAA5
:10322000554844464F460078082308EB0010CDE986
:1032300000900022582102A801F0C2FC4F48082348
:1032400000220078602104EB0010CDE9007002A894
:1032500001F0B6FC4A48082300220078702104EBF4
:103260000010CDE9007002A801F0AAFC454808232F
:1032700000220078782104EB0010CDE9007002A84C
:1032800001F09EFCCDE900BA54465F4602230422B9
:103290006B2102A801F00BFCCDE900740223092286
:1032A0006B2102A801F003FC00240F2706EBC401E8
:1032B00002233C2202A8009701F074FA641CE4B2D5
:1032C000052CF3D302A8FDF735FC02A801F0FDFCA4
:1032D0002D48002227A9006802F0A4FF9DF89C0059
:1032E000012816D09DF89D0001282DD09DF89E0044
:1032F000012833D09DF89F0001288ED1234908680A
:10330000401C0860042801DD042008608DF89F50EF
:1033100083E71E48006805280DD2DFE800F00305AA
:103320000F1113001A4800E01A48006802F036FD39
:10333000002002F0A9FD8DF89C506EE71648F4E7D6
:103340001648F2E71648F0E71648006802F026FD36
:10335000002002F099FD8DF89D505EE70B48016852
:10336000491E016000D505608DF89E5055E70000AC
:10337000A076000836680008BF000020BC000020CE
:10338000C0000020BD00002000000020C40000207C
:103390002C00002028000020200000202400002015
:1033A0001C00002010000020A8B04A4800252795E6
:1033B0000068456329464748FFF74EFA02A801F026
:1033C00033FCDFF81481DFF814A1DFF814B1DFF863
:1033D0001491454F454E102402A801F0A9F9307808
:1033E00010B101280ED104E03023102240482821DA
:1033F00003E04048402310222021CDE9004002A8EC
:1034000001F0DEFBCDE9004810232822182102A894
:1034100001F0D6FBCDE9004A10232822582102A84A
:1034200001F0CEFB3878D8B1012802D0022809D1AA
:1034300016E031481023CDE900402822382102A8A7
:1034400001F0BEFB02A801F040FC002227A9D9F838
:10345000000002F0E7FE9DF89C00012807D017E06D
:10346000CDE9004B10232822382102A8E8E738785C
:1034700020B1012805D0022806D007E000F064F84A
:1034800004E000F03DF801E000F04AF88DF89C50AF
:103490009DF89D0001280BD100F072F81748357097
:1034A000006802F07BFC002002F0EEFC8DF89D50DD
:1034B0009DF89E0001280AD13078401C00F00100E0
:1034C000307000F05DF800F03FF88DF89E5000F08D
:1034D00065F881E7E4010020A0750008C0750008C8
:1034E0000076000800000020FC000020FD00002005
:1034F000C074000820750008E07500081400002062
:1035000010B5054C05490220207009680020486369
:10351000FEF79EF9A06010BDFC000020E401002031
:1035200010B5084C012020706188206930F8210016
:10353000FDF798F9FEF78CF9A168401AE168084494
:10354000E06010BDFC00002010B50A4C0120207086
:10355000607818B1012803D0206903E0064800E034
:10356000064820610088FDF77DF9FEF771F960607B
:1035700010BD0000FC0000202C720008D87200086A
:103580000449054A00200870126850634880C860EA
:1035900070470000FC000020E401002070B5164CCC
:1035A0002078012822D16188206900EB81004688BB
:1035B000FEF74EF9E168451A6068281AB04215D343
:1035C0000E490020096848630520FEF72DF8608841
:1035D000401C80B26080216931F82000A0F57F4155
:1035E000FF3904D0FDF73EF96D1D656070BDBDE883
:1035F0007040FFF7C5BF0000FC000020E401002080
:10360000FEE710B5002101EB41021318845C5A78E3
:10361000944208D19B789A4205D122B101EB410135
:103620000844407810BD491C0329ECDB00214318F5
:10363000445CDA78944206D19B799A4203D112B164
:103640000844C07810BD491C0329F0DB02780179D9
:103650008A4203D1027A914200D131B982788A42FA
:1036600005D18279914202D109B1084610BDFFF718
:1036700090FB0028FAD0032010BD0000A8B0002065
:10368000279002A801F0D0FAA64902A801F03CFB5D
:10369000A54EDFF898A2A64C20274FF0100B4FF054
:1036A00004084FF0010902A801F042F8207801282F
:1036B00003D19AF80000C00711D16079102306EBFE
:1036C0008010CDE900701A46002102A801F078FAB6
:1036D0002078022803D19AF80000C00711D1A07801
:1036E000102306EB8010CDE900701A46182102A8BD
:1036F00001F066FA2078032803D19AF80000C00789
:1037000011D1A079102306EB8010CDE900701A4684
:10371000362102A801F054FA2078042803D19AF83F
:103720000000C00711D1E078102306EB8010CDE92E
:1037300000701A464E2102A801F042FA20780528AE
:1037400003D19AF80000C00712D17A48E179082322
:1037500000EB0110CDE900B01B22662102A801F0A8
:103760002FFA2078062803D19AF80000C0070BD161
:1037700070482179082300EB0110CDE900B01B222D
:103780006E2102A801F01CFA4D46042319222E21B5
:1037900002A8CDE9008901F08AF9CDE9008504236A
:1037A00021222E2102A801F082F963482023CDE9CD
:1037B00000B03022002102A801F002FA5FA33F22EC
:1037C000602102A801F0EEF902A801F07EFA5D483E
:1037D000002227A9006802F025FD9DF89C00012821
:1037E00019D16078A0B15849607908705749A0781C
:1037F00008705749A07908705648E1780170564919
:10380000E0790870554920790870002020706070B8
:1038100000208DF89C009DF89D00012813D1002503
:103820006571A570A571E570E57125714C4884F846
:10383000009084F80190006802F0B0FA002002F0D5
:1038400023FB8DF89D509DF89E0001280CD16078D7
:1038500038B12078401CC0B22070062801D984F805
:10386000009000208DF89E009DF89F0001287FF4B5
:103870001AAF607830B3207807284ED2DFE800F026
:103880004D041526303A44006079401CC0B2607186
:10389000A178032902D900F0010004E00321B0FB64
:1038A000F1F201FB1200607137E0A078401CC0B259
:1038B000A0706179022906D00A21B0FBF1F201FB68
:1038C0001200A07029E000F00300FAE7A079401C84
:1038D000C0B20621B0FBF1F201FB1200A0711CE0A6
:1038E000E078401CC0B20A21B0FBF1F201FB1200EB
:1038F000E07012E0E079401CC0B20621B0FBF1F2AA
:1039000001FB1200E07108E02079401CC1B20A20DE
:10391000B1FBF0F200FB1210207100208DF89F0027
:10392000C1E600006A7E0008D6680008D8000020C2
:10393000DE00002036680008EC710008E8BF94E55E
:103940009B9E000000000020BF000020BC00002063
:10395000C0000020BD000020C1000020BE000020EB
:103960001000002010B502F02FFD012803D0BDE8A3
:10397000104002F01FBB10BD30B593B0282168463F
:10398000FCF7D5FC14210AA8FCF7D1FC0025012086
:103990000F9510951195010412958DE82300049060
:1039A0004FF4E010CDE90810022407946846FEF7B2
:1039B00003FB08B172B6FEE70AA90F2081E83100C7
:1039C0004FF48060CDE90D0502210AA8FEF708FA40
:1039D00008B172B6FEE74FF4004011900F940FA8A3
:1039E000FEF788F9002801D072B6FEE713B030BDAB
:1039F000704700000148FEF7CEBD000074020020B1
:103A00000148FEF7C8BD0000BC020020F0B5026806
:103A1000194B1A4C1A4D4FF08047984205D0B842C6
:103A200003D0A04201D0A84203D122F070064A6818
:103A30003243984205D0B84203D0A04201D0A842F8
:103A400003D122F44074CA6822434C6922F08002F8
:103A5000224302608A68C2620A688262984201D187
:103A600009690163012141610169C90703D0016945
:103A700021F001010161F0BD002C01400004004073
:103A80000008004010B501F01F030121046A9940AD
:103A90008C430462016A9A401143016210BD10B563
:103AA000846842EA032224F47F440A43224382606A
:103AB00010BD826822F070020A4342F00701816063
:103AC0007047000030B5036A026A22F00102026208
:103AD0004268846924F073050C682C4323F00205C6
:103AE0008B682B430A4DA8420BD123F00805CB6805
:103AF00022F440722B434D6923F0040315438A6975
:103B00002A434260846149684163036230BD00001A
:103B1000002C014030B5026A036A23F010030362EF
:103B2000436884690D6824F4E64444EA05248D68FA
:103B300022F0200242EA05120B4DA8420ED1CD68B8
:103B400022F0800242EA05124D6923F4406343EA01
:103B500085038D6922F0400243EA85034360846156
:103B600049688163026230BD002C014030B5036AB0
:103B7000026A22F4807202624268C46923F400730C
:103B800024F073050C682C438D6843EA05230C4D23
:103B9000A8420ED1CD6823F4006343EA05234D69A2
:103BA00022F4405242EA05128D6923F4806342EA0E
:103BB00005124260C4614968C163036230BD000000
:103BC000002C014030B5046A026A22F4805202627D
:103BD0004268C3690D6823F4E64343EA05238D6810
:103BE00024F4005444EA0534064DA84204D14D693A
:103BF00022F4804242EA85124260C361496801644E
:103C0000046230BD002C014010B5036A046A24F040
:103C100001040462846924F0F00444EA021423F0ED
:103C20000A020A438461026210BD10B5036A046A85
:103C300024F010040462846923F0A00324F4704487
:103C400044EA023243EA01118261016210BD0000C0
:103C50006948A8B0006802F017F9DFF8A0A1DAF807
:103C6000000002F011F96648006802F00DF965489D
:103C7000006802F009F96448006802F005F9634839
:103C8000006802F001F96248006802F0FDF8DFF810
:103C90008491D9F8000002F0F7F84FF0000802A86C
:103CA000CDF89C8000F0C0FF5B4902A801F02CF821
:103CB0001025DFF868B1202702A800F039FD584828
:103CC0000022CDE900501023114602A800F078FF31
:103CD00054481023CDE900500022702102A800F0C2
:103CE0006FFF514C10235E46E0781A460BEB8010B4
:103CF000CDE90070002102A800F062FF20781023B7
:103D000006EB8010CDE900701A46182102A800F0D9
:103D100057FF2079102306EB8010CDE900701A467A
:103D2000362102A800F04CFF6078102306EB8010CB
:103D3000CDE900701A464E2102A800F041FF3B4E2B
:103D40006079082306EB0010CDE900501B226621A4
:103D500002A800F035FFA078082306EB0010CDE99B
:103D600000501B226E2102A800F02AFF0426012425
:103D7000CDE90064334619222E2102A800F097FEF7
:103D8000CDE90064042321222E2102A800F08FFE39
:103D900027A33F22002102A800F004FF2648202389
:103DA000CDE900503022602102A800F009FF02A8EE
:103DB00000F08BFF2148002227A9006802F032FAA8
:103DC0009DF89C00012808D1DAF8000001F0E6FF18
:103DD000002002F059F88DF89C809DF89D00012884
:103DE0007FF46AAFD9F8000001F0D8FF002002F09C
:103DF0004BF88DF89D805FE70C0000201400002038
:103E00001C000020200000202400002028000020AA
:103E10002C000020300000206A7E0008D6680008D0
:103E2000F667000816680008BC0000203668000825
:103E3000E88F9CE58D950000566B0008000000207F
:103E4000FEE70907090E002804DB00F1E02080F8F6
:103E50000014704700F00F0000F1E02080F8141DFE
:103E6000704700002A4810B58178491CC9B281709A
:103E70000A2928D1002181704279521CD2B24271A4
:103E8000062A20D141714278521CD2B242700A2ACD
:103E900019D141700279521CD2B20271062A12D194
:103EA00001710278521CD2B202700A2A03D1017049
:103EB000C278521CC270C278022A04D10278042A45
:103EC00001D1C170017013490278097891421DD166
:103ED000114942780978914218D11049C27809787D
:103EE000914213D10E490279097891420ED141795C
:103EF00000290BD18078002808D141F288314FF495
:103F0000FA70FCF787FC07490120087010BD00001B
:103F1000BC000020E6000020E7000020E8000020B0
:103F2000E9000020C80000200248C168491CC160A7
:103F300070470000CC000020FDF720FEFFF71CFDBD
:103F4000FEF7EEFFFEF7D6FFFFF748F8FFF766F83B
:103F5000FFF71AF9FEF79CFFFFF7C8F80248FEF7D3
:103F60007FFAFCF799FEFEE7740200202DE9F0418C
:103F70001E4C0F460546E6682068001D01F004FE51
:103F800038B9206890F82C100120884021698143BD
:103F90002161681C15D1A7B1154922684868906055
:103FA00023688268DA6022688368121D5A6022687A
:103FB000121D8260206841610868401C0860BDE8ED
:103FC000F08120683544B5424560216805D2E06B38
:103FD000BDE8F041091D01F0FFBDA06B091D01F016
:103FE000FBFDA06A8542EAD2A562E8E7480000200E
:103FF000D40500202DE9F041054601F011FE354CB5
:10400000A068401CA0602068334F10B1606930B3D5
:104010002BE02560A068012827D1002606EB86004A
:1040200007EB800001F0CAFD761C202EF6D32B484A
:1040300001F0C4FD2948143001F0C0FD27482830A4
:1040400001F0BCFD25483C3001F0B8FD234850305C
:1040500001F0B4FD2148A0631430E06305E020685E
:10406000E96AC06A884200D82560606A0121401C64
:104070006062E86A226981401143216100EB80009F
:1040800007EB80004068A8608168E9608268291DAC
:1040900051608160E86A00EB800007EB8001696194
:1040A00057F82010491C47F8201001F0C7FD60693F
:1040B00000280CD02068E96AC06A884207D2084903
:1040C0004FF080500860BFF34F8FBFF36F8FBDE894
:1040D000F081000048000020040300208405002037
:1040E00004ED00E010B501F09BFD0C4C206880B998
:1040F0000B4801F063FD0A48143001F05FFD0848E9
:10410000E0601430206100220C21052001F068FFDE
:104110002060BDE8104001F091BD00008800002043
:10412000E805002030B4026C0B46002A0BD0C168B1
:104130001144C1608468A14201D30168C16030BCF0
:104140001846FCF78DB830BC70472DE9F041856BFF
:10415000164604460027026CFAB17EB1E068FCF70F
:104160007FF8E168206C091AE1602268914202D26E
:10417000A168081AE060022E0DD00EE06068FCF71E
:104180006FF8216C606808446060A168884204D3BD
:104190002068606001E005B16D1E6D1CA5633846A6
:1041A000BDE8F08110B50446006B01F051FD2046DA
:1041B000BDE8104001F04CBD0E484FF420514207BD
:1041C00006D0C01D0B4920F00700411AC1F520514F
:1041D000094A00230144C2E900030839143A21F0D6
:1041E000070111604B600B600B1AC0E9001393606C
:1041F0005360704710060020B4000020144E154C88
:10420000A6F52F774FF08058DFF84C9012E000BFF2
:1042100001F006FDF068C568281D01F0B5FCA06836
:10422000401EA0606068401E606001F007FD2846E7
:10423000FFF7B8FF60680028EAD138680128F9D98B
:10424000C9F80080BFF34F8FBFF36F8FF2E7000014
:10425000C00500204800002004ED00E02DE9F047F3
:104260009946DDE9096480466FF00303206B03EB98
:104270008202089D104420F0070761B10020231836
:104280000A5C83F834200A5C12B1401C1028F6D373
:10429000002084F84300202D00D31F25201DE56257
:1042A00001F097FC04F1180001F093FC2461C5F1C2
:1042B00020006462A0614A464146384600F006FA92
:1042C0002060002E00D03460BDE8F08730B5114981
:1042D00000E011460A688242FBD34B685C188442B6
:1042E00003D1406818444860084643681C1894424B
:1042F00009D1084C143C2468A24209D052681A44DF
:1043000042600A6812680260814200D0086030BDD5
:104310000460F9E7B400002070B5002441600B4D43
:104320000061914206D8D11A8269914206D2011DDC
:10433000286907E09A4203D2994201D3012403E09D
:10434000011DE86801F048FC204670BD880000208F
:1043500010B5044601F064FCA06B28B15FF00004C6
:1043600001F06CFC204610BD0124F9E770B506464B
:104370000D480D46C068C068C468201D01F004FCEB
:1043800094F82400410705D52A463146204600F01E
:10439000ABF803E000F0FE0084F824002046216A18
:1043A000BDE8704008470000880000207FB5324E0D
:1043B0005AE00098002857DB029C606910B1201D6C
:1043C00001F0E2FB03A800F0B1F8054600980A28C6
:1043D0004AD2DFE800F0490505282E3D0505282EC4
:1043E00094F824002A4640F0010084F82400019942
:1043F000A069019B01442046FFF78EFF38B394F873
:104400002400410707D50198A1692A4601442046A6
:1044100000F06AF803E000F0FE0084F82400216A4E
:104420002046884720E014F8240F00F0FE0020709A
:104430001AE094F824002B4640F0010084F8240090
:104440000198A06141191A462046FFF765FF0BE06D
:1044500094F82400810703D4204601F0F9FB03E01F
:1044600000F0FE0084F8240000226946306801F064
:10447000D9FE00289DD17FBD88000020F8B50D46EB
:10448000064601F055FD684600F050F804460098D5
:1044900010B102F0A5F8F8BD1148ADB10169096885
:1044A000D9B10025311B2A46006801F0FFFB02F05C
:1044B00097F80028EFD10B494FF080500860BFF308
:1044C0004F8FBFF36F8FF8BDA642EBD802F088F88C
:1044D00021463046FFF74AFFF8BD0125E2E700001C
:1044E0008800002004ED00E070B516460C46054635
:1044F00004E0A869296A044428468847A869234635
:10450000011932462846FFF707FF0028F1D170BD98
:104510000548816B096821B1816BC96809688162AE
:1045200070474FF0FF31FAE7480000202DE9F041D5
:10453000064601F057FF0E4C0546A068854214D28E
:104540004FF0FF3704E0C06839460068FFF70EFF00
:10455000E06801680029F6D12169C4E9031001204F
:1045600030602846A560BDE8F0810020F8E7000033
:1045700088000020BF2080F31188BFF34F8FBFF366
:104580006F8FFEE7064B426900219A4206D1806A8E
:10459000A3F12802904201D000B9012108467047DA
:1045A000D4050020074CE068016841B1C0680021D3
:1045B000D0F80000FFF762FFFFF7F8FEF3E70121F4
:1045C0000020F7E7880000202DE9F041044601F0C3
:1045D00027FB94F9455004F1240609E0606A48B1CC
:1045E000304601F097FF08B101F0A2FB6D1E6DB2DD
:1045F000002DF3DC4FF0FF3684F8456001F01EFB20
:1046000001F00EFB94F9445004F1100709E0206911
:1046100048B1384601F07EFF08B101F089FB6D1EFC
:104620006DB2002DF3DC84F84460BDE8F04101F088
:1046300005BB000070B50446002601F079FC224D50
:10464000286808B9FFF7B8FDCCB304F00700C0F143
:104650001000C1438C4232D8211800292FDD686830
:1046600081422CD8184814300246146801E02046D4
:10467000144662688A4202D22268002AF7D12A6868
:1046800094421CD006682268026060680836421AAC
:10469000102A04D9601842606160FFF717FE616854
:1046A0006868401A6860AA68904200D2A86041F029
:1046B0000040606000202060E868401CE86001F075
:1046C0008FFF304670BD0000A000002010B5031F12
:1046D0004FF080741C601B1F21F001011960191F2D
:1046E000024B0B60143940380A6010BD7545000854
:1046F00008B500200C4D441E0090224669462868EB
:1047000001F090FD9DF80000012803D10021074829
:10471000FEF7A2F89DF801000128EED10021034820
:10472000FEF7E8F8E9E7000000000020E4010020BF
:1047300001680A7C90F83810406B5143C900FBF7C0
:10474000D4BD10B5044600F061FA204600F09EFA90
:104750000028FAD12046BDE81040002100F0BEBA82
:104760002DE9F8438146089C1E46101980B200903E
:10477000881983B215468846484600F06FFA00282B
:104780000ED00027002C0BD033462A46414648461F
:10479000009700F0C9F86D1C641EADB2A4B2F1E739
:1047A000BDE8F8832DE9F8431C4680461019401CEB
:1047B00080B200900819401C83B21546101B82B2CB
:1047C0000E46081B81B2089F404600F047FA0028B9
:1047D00006D023462A4631464046009700F092FB19
:1047E000BDE8F8832DE9F8431C4680461019401CAB
:1047F00080B200900819401C83B21546101B82B28B
:104800000E46081B81B2089F404600F027FA002898
:1048100006D023462A4631464046009700F004FC65
:10482000BDE8F8832DE9F84F83460A9E9A46901911
:1048300080B201EB0A04009015460F46A3B2584619
:1048400000F00CFA00282FD04FF0000953462A46FA
:1048500039465846CDF8009000F066F8022E23D372
:10486000B61E360405F10105360CADB214D04FF07A
:10487000010833462A4639465846CDF8008000F0F4
:1048800053F8641EA1B233462A465846CDF800803C
:1048900000F04AF8A81985B253462A4639465846C8
:1048A000CDF8009000F040F8BDE8F88F2DE9F04118
:1048B000044690F870001F4615460E4630B1012898
:1048C00009D002280CD0032815D10FE0E16D204655
:1048D0008847284408E0E16D20468847301A09E0FF
:1048E000E16D20468847281A85B204E0E16D204634
:1048F0008847304486B22846A4F86460A4F866006D
:1049000039460025204600F06BFD010003D020460B
:1049100000F096FC85B22846BDE8F08138B5002449
:10492000009400F001F838BD3FB581B0044690F81E
:104930008C00089900283AD0BDF81000002836D025
:10494000012811D9022902D0032907D00CE0BDF8B3
:104950000820101A401CADF8080005E0BDF80C2036
:10496000101A401CADF80C0011F0010521D0B4F86C
:104970004810BDF80800814219D8B4F84A108142A5
:1049800015D9B4F84E30B4F84C2004A90DF10C0040
:1049900000F09AFA00280AD00095206BBDF810307C
:1049A000BDF80C208568BDF808102046A84705B062
:1049B00030BDB4F84C10BDF80C008142F7D8B4F803
:1049C0004E108142F3D9B4F84A30B4F8482004A913
:1049D00002A8DDE72DE9FF4F81B090F89270DDF875
:1049E00038801D460E4681468FB1002082460398CE
:1049F000039A401C80B20090701983B2484600F0C0
:104A00002DF9002839D001244FF0000B31E00120AE
:104A1000ECE700BF98F80000204000230CE05B1C8E
:104A2000761C61009BB2B6B211F0FF0402D10124E2
:104A300008F101086D1EADB255B198F8001001EAF9
:104A4000040110B10029EAD103E00029E7D003E016
:104A500010B189F8927004E099F8910048B989F88A
:104A600092A0F01A81B2CDF800B04846039AFFF741
:104A70005BFF002DCED189F8927005B0BDE8F08FB4
:104A800008B5B0F84C30934210D8B0F84E3093428D
:104A90000CD9B0F848308B4208D8B0F84A308B4275
:104AA00004D9002300930123FFF73EFF08BD2DE941
:104AB000FF4F83B01F46DDE910A402EB0A06B0B237
:104AC000CD19009090468946ABB2039800F0C6F825
:104AD00000285CD009EB04001FFA80FB08EB0400FF
:104AE00081B2281B401E85B2301B401E80B2CDE92A
:104AF000010102200A460090234659460398FFF719
:104B000071FE01200090DDE9022023462946FFF7CF
:104B100069FE0420009023465946019A0398FFF746
:104B200061FE0820009023462946019A0398FFF76A
:104B300059FE0BF101011FFA81FB0299381B491C38
:104B4000001B80B289B20291032811D3801E86B265
:104B5000601C85B233464246594600950398FFF7DC
:104B6000FFFD334600955946019A0398FFF7F8FD7B
:104B7000AAEB0400001B80B2032808D3801E80B279
:104B80000090DDE902203B464946FFF7E9FD07B00A
:104B9000BDE8F08F30B4024C446030BC00F0EEBA97
:104BA0003157000830B4024C446030BC00F0E6BA23
:104BB000F95A000838B501240094FFF7B5FE38BD56
:104BC0002DE9F84F8246DDE90A57D81DC0F3CC081D
:104BD000501980B21C460090081983B216468946C7
:104BE000504600F03BF800280ED00BE0234632463A
:104BF000494650460097FFF7EDFE761C6D1E474470
:104C0000B6B2ADB2002DF1D1BDE8F88F10B50446B3
:104C100090F8930010B12046FFF78AFD2046BDE8CA
:104C20001040002100F05AB810B50446084B094A5C
:104C3000094900F0B1F8204600F037FD0021204678
:104C400000F043FD2046BDE81040FFF77ABD0000AC
:104C5000095600086D570008A4B4000870B50D4649
:104C60001E460446B0F84E10B0F84C00049B00F00D
:104C700014FC002809D0B4F84A10B4F848003346B0
:104C80002A46BDE8704000F008BC70BD70B504460F
:104C900000F093FC94F8390094F838100844C5B239
:104CA0002068407CA84204D8204600F006FD002081
:104CB00070BD94F8930010B12046FFF739FD2946E6
:104CC000204600F00BF8012070BD10B5044600F03E
:104CD00074FC2046BDE8104000F0EFBC10B504465F
:104CE00080F83910006B016820468847206B4168C6
:104CF0002046BDE81040084780F89210032902D3EF
:104D0000012180F89210704710B50446806D8842EA
:104D100009D004F17400A16500F01AFC2046BDE83A
:104D2000104000F055B810BD0149C1657047000042
:104D3000F35100080021A0F85010A0F854104FF6CD
:104D4000FF71A0F85210A0F85610016B496808478F
:104D500070B5044600250498A565E362616384F894
:104D6000382084F8395084F86D5084F8915084F8D4
:104D70008D50012184F8921084F89310206301680B
:104D8000204688472046FFF7D5FF2046FFF7CCFF97
:104D900084F8705070BD00007CB50C46009313463B
:104DA0000546084A084900F098FC01A800F0CAFB33
:104DB0000146064B00949DF804202846FFF7C8FFE3
:104DC0007CBD000089580008B1590008B55400089E
:104DD00010B5816D00291AD090F9813080F88E309D
:104DE00090F9822080F88F2090F88D1000290ED045
:104DF00001290DD090F97E4090F980100C449C421E
:104E000001DD80F88E408A4201DD80F88F1010BDF0
:104E100090F983108B4201DA80F88E1090F984109B
:104E2000F1E72BB1012B05D0022B06D0104402E094
:104E3000084400E0801A80B27047401AFBE72BB1AB
:104E4000012B05D0022B06D0401A02E0104400E0EE
:104E5000084480B27047801AFBE738B50446B0F8C2
:104E600056000090B4F85230B4F85420B4F8501002
:104E70002046FFF7F3FE18B3012084F88C00B4F845
:104E80004810B4F85000814201D2A4F84800B4F8A8
:104E90004A10B4F85200814201D9A4F84A00B4F88B
:104EA0004C10B4F85400814201D2A4F84C00B4F87C
:104EB0004E10B4F85600814201D9A4F84E0038BD16
:104EC000002084F88C0038BD30B504880D88254456
:104ED000ADB2AC4205D99C4202D25D1EADB200E03B
:104EE00014469C4201D2954201D8002030BD944224
:104EF00000D214469D4200D91D460480281B08801C
:104F0000012030BD2DE9FF4FC3F1010083B006B28F
:104F100058429146DDF840A040008B4601271C46D0
:104F2000CDE9009A00250FFA80F85B462246294613
:104F300015E0002E08DB08F102000FFA80F8641E6D
:104F400006EB0800A4B206B26D1CBF1C3FB2CDE94F
:104F5000009AADB2F01906B25B4622462946039884
:104F600000F005F8A542E4D307B0BDE8F08F2DE9C5
:104F7000FF4F83B00E46DDE9108703EB0600029079
:104F80001546A8EB0600019003EB05001C46F90747
:104F9000A8EB050B00900DD002981FFA8BF281B29E
:104FA0000398FFF76DFD019882B2009881B20398D3
:104FB000FFF766FDB907A4EB060AA4EB05090DD5BA
:104FC0001FFA8BF21FFA8AF10398FFF759FD019837
:104FD0001FFA89F182B20398FFF752FD08EB05042E
:104FE000390708EB06050BD50298A2B281B20398E7
:104FF000FFF746FD0098AAB281B20398FFF740FD83
:1050000078070ED5A2B21FFA8AF10398FFF738FD90
:10501000039807B0AAB21FFA89F1BDE8F04FFFF775
:105020002FBD07B0BDE8F08F2DE9FF4FC3F10100A0
:1050300083B006B258429146DDF840A040008B464E
:1050400001271C46CDE9009A00250FFA80F85B463F
:105050002246294615E0002E08DB08F102000FFA6F
:1050600080F8641E06EB0800A4B206B26D1CBF1CDB
:105070003FB2CDE9009AADB2F01906B25B462246C6
:105080002946039800F005F8A542E4D307B0BDE82F
:10509000F08F2DE9FF4F83B0164610980F46A0EB16
:1050A000060B03EB070001901098DDF84490A0EB8D
:1050B000070098465FEAC97103EB060A02F1010591
:1050C00007F1010400900FD00198ABB281B21FFA32
:1050D0008BF20398FFF76EFD0098A3B282B21FFA1D
:1050E0008AF10398FFF766FD5FEA8971A8EB07076D
:1050F000A8EB06060DD5ABB21FFA8BF2B9B2039836
:10510000FFF758FD0098A3B282B2B1B20398FFF73F
:1051100051FD5FEA09700DD50198ABB281B2109ACA
:105120000398FFF747FDA3B21FFA8AF1109A03987C
:10513000FFF740FD5FEA49700ED5ABB2B9B2109AE5
:105140000398FFF737FD109A039807B0A3B2B1B2E6
:10515000BDE8F04FFFF72EBD07B0BDE8F08F38B5C2
:10516000C58F049C0094521BC46A92B2A04738BDFC
:1051700038B5049C0094FFF7F2FF38BD2DE9F047E5
:105180001C4691468846064600F0B2FC00254FF6C4
:10519000FF7772682178304690470346B84225D0A1
:1051A000641CA3F57F40FE38F3D04A4641463046A2
:1051B000FFF77CFB96F8701031B1012907D0022966
:1051C00008D003290FD10AE008EB000104E009EB45
:1051D000000106E0A8EB00011FFA81F803E0A9EB4B
:1051E00000011FFA81F9284485B2D2E72846BDE8BC
:1051F000F0870020704710B50C4600F006F8012239
:10520000641EA240801A40B210BD30B50568047B10
:105210002A78E2406318DBB2082B09D36D1C0560C5
:105220002D78C4F10804A5401543083BEAB2DBB26F
:1052300001248C40641E14400373204630BD0000DE
:105240002DE9F843054600F1600400F00CF915F96A
:105250006B6F2046E97BFFF7CEFF8146297C204615
:10526000FFF7C9FF0746697C20466B3DFFF7C3FF88
:10527000804694F90A00002857DDF019404247B2F1
:10528000237CA0883A464946FFF7CBFDA080237CCB
:105290003A46E0884946FFF7D2FDE080A188277CA6
:1052A00002460B4637B1012F0AD0022F40D0032F00
:1052B0000FD146E094F90A7030443B449BB207E0BA
:1052C000891B491C94F90A705B1C89B29BB2384453
:1052D00080B200902846FFF7C1FC30B30020207256
:1052E00084F8090095F876102046FFF78EFF814676
:1052F00095F877102046FFF788FF074600224946B9
:10530000284600F027F801223946284600F022F806
:1053100001212046FFF779FF0028EFD194F9090019
:10532000B042DFDBA07B85F892004046BDE8F88301
:1053300094F90A705B1CC91B491C89B29BB2921B71
:1053400004E094F90A7033449BB2D21B521C92B20F
:10535000401CBDE72DE9F74F84B00D46049C94F83E
:10536000687094F869806034A07AC01BC6B2019658
:10537000B54200D201954FFA88F279B2A088B4F80C
:1053800006B0237C92468946FFF74BFD0290237CB2
:10539000524649465846FFF752FD0246069808B164
:1053A000A17B02E0607B50B9E17B049880F8921009
:1053B000207C0090DDE901310498FFF7B5FAB54291
:1053C00007D3A81BC5B208F10100002700F0FF08B1
:1053D000CAE77819207284F8098007B0BDE8F08F19
:1053E00070B50D460146806D1730FF2D10D8612D28
:1053F00002D3B1F8881003E0412D02D3B1F8861032
:105400000844417819B30278AA42F9D1801C70BDD2
:10541000B1F88A100C1826460021304600F019F821
:1054200004440221304600F014F8361DA842F3D39C
:105430004FF6FF72207802EA00216078084306D018
:10544000A84201D1E01C70BDA0780444F2E700201E
:1054500070BD08444FF6FF720178407802EA0121DE
:10546000084480B2704730B5054600F1600401661B
:105470000020207315F8781F2046FFF7C6FEA072A3
:1054800069782046FFF7C1FEE072A87EA07310B1D4
:105490000020E07330BD0120FBE78A4205D2834241
:1054A00001D89A4203D9012070478342F9D80020DD
:1054B00070470000F0B502F007060124B440002553
:1054C00090F892E0E7B2DDF814C02C46BEF1010F6F
:1054D00001D83D4600D03C46076822F00702BCF1E7
:1054E000000F3F7C07FB02F7BAB2476B3A44114406
:1054F00009D108785B1E284360401B0401F8010BAA
:105500001B0CF6D1F0BD0A78761C2A436240A3F149
:1055100001030A7016F007069BB206D06A06150E44
:105520006206140E002BEED1F0BD428F114490F8AC
:105530009220012A03D800BF4FF00105F2D04FF0AE
:105540000104EFE70821017000487047192E002080
:1055500070B5054608782870487868708878A87013
:10556000C878E870087928714879687188790C469C
:10557000A871E079E871207A2872607A6872A07A5E
:10558000A872E07AE872207B2873607B6873A07B46
:10559000A873E07BE873207C287411212046FFF774
:1055A00058FF688213212046FFF753FFA882152178
:1055B0002046FFF74EFFE88270BD2DE9F84306460E
:1055C00090F8387090F83950006800244FF6FF7852
:1055D00090F81190316830462A460B7C716B04FBC1
:1055E00003FC1FFA8CFC08EACC0C614400910021FA
:1055F00000F04CF8641C6D1CE4B2EDB2BC4201D268
:105600004D45E7D3BDE8F88310B51046282905D0ED
:10561000292901D0002010BDFCF706F8012010BD9B
:10562000F0B590F838204FF6FF75036805EAC2011F
:105630008187197C05EAC101418790F8394005EA64
:10564000C401C1875E7CA718B74201D9321B92B250
:1056500005EAC20220F8401F11444180998A8180E6
:10566000D98AC180F0BDFFF7DBBF0021A0F8481048
:10567000B0F84410A0F84A10B0F84010A0F84C1050
:10568000B0F84210A0F84E10FFF7E7BB1CB58DF83C
:1056900005108DF80620049C8DF80430009401223A
:1056A00084686B460F21A0471CBD30B4846800237A
:1056B000A44630BC1A460A21604730B484680023EF
:1056C000A44630BC1A461021604730B484680023D9
:1056D000A4460A4630BC0B2160472DE9F04115462F
:1056E0000E460446069F00F009F86761A660C4E90B
:1056F00003532046BDE8F04100F012B8002140F805
:10570000081B064A026042608260C260C1768177EF
:105710000161FF21017780F820107047B55A000819
:1057200030B484680023A44630BC1A46092160477F
:10573000080001D00A2801D14FF6FF70704730B43D
:1057400004690023A44630BC1A461921604713B5EA
:105750000122046901AB1721A0471CBD30B40469C4
:105760000023A44630BC1A461821604738B5154CB2
:10577000182918D004DC142922D0172904D105E0F7
:10578000192913D020291BD0002038BD0E4907E06D
:10579000A07813F8015B0D54401C521EA070D2B2C9
:1057A000002AF5D10CE00020A07009E04FF48071D0
:1057B000009190F82410A378034A0448FCF712F9EA
:1057C000012038BD10010020193200209001002076
:1057D00030B4C4680023A44630BC1A46192160477F
:1057E00030B4C4680023A4460A4630BC1621604782
:1057F00030B4C4680023A4460A4630BC1521604773
:1058000030B4C4681346A4460A4630BC172160472A
:10581000F8B50C464FEA000514F8011B182924D0EE
:105820000EDC152919D0162917D0172923D1207875
:105830008DF800006A4601212846FFF7E1FF0AE0E3
:10584000192912D0FE2916D122788DF8002029219D
:10585000284600F031F9641CDEE722788DF800203C
:10586000EE6800232846B047F5E70023EE681A46A5
:105870002846B047D0E7F8BD30B4C4680023A4463A
:1058800030BC1A46182160472DE9F041DFF8B0809E
:1058900014460646A1F11402002798F800001D46A0
:1058A000062A4AD2DFE802F02F03161B3E4310B14E
:1058B0003046FFF744FF3046FFF750FF00213046E7
:1058C000FFF745FF21463046FFF741FF012088F8EA
:1058D000000029E021463046FFF739FF24E050B1AF
:1058E0003046FFF72CFF06E01821304600F0EAF8BA
:1058F000183CE4B21835182C2A46F5D82146304613
:1059000000F0E0F80EE096F82400FF2802D178209D
:1059100086F8240037692B4622463046BC46BDE84F
:10592000F041604788F800700120BDE8F081002850
:10593000F8D03046FFF703FFF4E70020F5E700005A
:105940001301002070B50023456904461A4628213A
:10595000A8470023E5681A4614212046A8470122DB
:105960004B21204600F0A8F8206829210279204622
:1059700000F0A2F800224B21204600F09DF820689C
:1059800029210279204600F097F801224B21204678
:1059900000F092F82068292142792046BDE8704045
:1059A00000F08AB80160897C80F8221070470000FE
:1059B00070B50C46054600F019F888B9092C0BD0D3
:1059C0000A2C01D0002070BD2846FFF7BBFF054917
:1059D0002846FFF71DFF03E003492846FFF7E2FFD3
:1059E000012070BDD6B40008D8B500082DE9F041FB
:1059F0001E46144605460B2908D00D290ED00E2947
:105A00001ED00F2927D00020BDE8F0811AB1284907
:105A1000FFF7FEFE4AE02649491FF9E74AB124494B
:105A20000C31FFF7F5FE286890F8130085F8220086
:105A30003CE01F49491DFFF7EBFE2868807CF5E735
:105A4000FFF71AFF81212846FFF7D2FE214628469C
:105A5000FFF7C6FE27E0FFF70FFF707995F82210D9
:105A600001EBC000C7B240212846FFF7C1FE10205D
:105A700040EA17112846FFF7BBFE07F00F01284642
:105A8000FFF7AEFEB07940F0B0012846FFF7A8FE60
:105A900030793268C006010E2846FFF7B1FE641E59
:105AA00014F0FF04F4D12846FFF792FE0120ABE783
:105AB000B5B400080020704730B444690023A44600
:105AC00030BC60472DE9F04115460E460446FFF70D
:105AD00045FE40212046FFF73AFE27692B46324615
