:020000040800F2
:100000004030002021020008093200085B27000868
:10001000FD2D0008D9070008813700080000000006
:10002000000000000000000000000000890100083E
:10003000B708000800000000CD010008A132000848
:100040003B0200083B0200083B0200083B0200089C
:100050003B0200083B0200083B0200083B0200088C
:100060003B0200083B0200083B0200088108000830
:100070003B0200083B0200083B0200083B0200086C
:100080003B0200083B0200083B0200083B0200085C
:100090003B0200083B0200083B0200083B0200084C
:1000A0003B0200083B0200083B0200083B0200083C
:1000B000313300083D3300083B0200083B020008D2
:1000C0003B0200083B0200083B0200083B0200081C
:1000D0003B0200083B0200083B0200083B0200080C
:1000E0003B0200083B0200083B02000800F002F857
:1000F00000F03AF80AA090E8000C82448344AAF188
:100100000107DA4501D100F02FF8AFF2090EBAE885
:100110000F0013F0010F18BFFB1A43F0010318473B
:100120005CAD00007CAD0000103A24BF78C878C1F7
:10013000FAD8520724BF30C830C144BF04680C60ED
:10014000704700000023002400250026103A28BF35
:1001500078C1FBD8520728BF30C148BF0B60704739
:100160001FB51FBD10B510BD00F03DF91146FFF7DA
:10017000F7FF03F053FB00F05BF903B4FFF7F2FF66
:1001800003BC00F063F90000224B19680868B0E86E
:10019000F00F80F30988BFF36F8F4FF0000080F3FA
:1001A00011884EF00D0E70470000000006480068F0
:1001B000006880F3088862B661B6BFF34F8FBFF363
:1001C0006F8F00DF00BF00BF08ED00E0EFF3098094
:1001D000BFF36F8F0F4B1A6820E9F00F106008B55E
:1001E0004FF0BF0080F31188BFF34F8FBFF36F8FC5
:1001F00005F0FEFA4FF0000080F31188BDE80840DA
:1002000019680868B0E8F00F80F30988BFF36F8FB2
:10021000704700BF44000020EFF3058070470000E6
:100220000948804709480047FEE7FEE7FEE7FEE78A
:10023000FEE7FEE7FEE7FEE7FEE7FEE704480549C6
:10024000054A064B704700002D330008ED000008FA
:10025000402A002040300020402C0020402C00206C
:10026000032A40F2308010F0030C00F0158011F8E2
:10027000013BBCF1020F624498BF11F801CB00F8BA
:10028000013B38BF11F8013BA2F1040298BF00F80E
:1002900001CB38BF00F8013B11F0030300F071807F
:1002A000083AC0F0088051F8043B083A51F804CBF2
:1002B000A0E80810F5E7121D5CBF51F8043B40F8B8
:1002C000043BAFF30080D20724BF11F8013B11F8C3
:1002D00001CB48BF11F8012B24BF00F8013B00F807
:1002E00001CB48BF00F8012B70474FF000020429F2
:1002F000C0F0128010F0030C00F01B80CCF1040C55
:10030000BCF1020F18BF00F8012BA8BF20F8022B88
:10031000A1EB0C0100F00DB85FEAC17C24BF00F82E
:10032000012B00F8012B48BF00F8012B70474FF05C
:10033000000200B5134694469646203922BFA0E835
:100340000C50A0E80C50B1F12001BFF4F7AF090741
:1003500028BFA0E80C5048BF0CC05DF804EB890032
:1003600028BF40F8042B08BF704748BF20F8022B75
:1003700011F0804F18BF00F8012B7047704770478D
:10038000704710B5203AC0F00B80B1E81850203A01
:10039000A0E81850B1E81850A0E81850BFF4F5AF25
:1003A0005FEA027C24BFB1E81850A0E8185044BFAF
:1003B00018C918C0BDE810405FEA827C24BF51F81C
:1003C000043B40F8043B08BF7047D20728BF31F810
:1003D000023B48BF11F8012B28BF20F8023B48BF61
:1003E00000F8012B7047754600F02CF8AE4605006A
:1003F0006946534620F00700854618B020B5FFF740
:100400001DFFBDE820404FF000064FF000074FF001
:1004100000084FF0000B21F00701AC46ACE8C00922
:10042000ACE8C009ACE8C009ACE8C0098D4670472B
:1004300010B50446AFF300802046BDE81040FFF73A
:100440009CBE000000487047E029002001491820A8
:10045000ABBEFEE7260002007047000070B5044600
:1004600000688168C943C90717D1816821F001017B
:10047000816001F0E1F805460AE000BF01F0DCF818
:10048000401B022804D920688068C043C00706D0FA
:1004900020688068C043C007F0D0002070BDA06A0B
:1004A00040F01000A062E06A40F00100E06201202C
:1004B00070BD10B50146406A826A12F0500F05D037
:1004C000006A026BBDE8104008461047816A41F49B
:1004D0000071816201688968C1F3424107290CD12A
:1004E000017B51B9816A21F480718162816AC904FA
:1004F00003D4816A41F00101816200F017FD10BD53
:1005000010B5406A816A41F040018162C16A41F0E0
:100510000401C16200F011FD10BD10B5406A00F089
:100520000BFD10BDF8B500260446009600688168F2
:10053000C943C9072DD0816841F001018160164887
:1005400016490068B0FBF1F000E0401E0090002862
:10055000FBD101F071F8054616E000BF01F06CF820
:10056000401B022810D920688068C043C0070BD008
:10057000A06A40F01000A062E06A40F00100E06272
:1005800084F824600120F8BD20688068C043C0075B
:10059000E4D10020F8BD00004000002040420F00E0
:1005A000A8B04FF0000902A8CDF89C9003F0ACFF72
:1005B000804902A804F018F8DFF8FCA17F4E20273C
:1005C0007F4C4FF0100B4FF00408012502A803F0F8
:1005D0001FFD2078012803D19AF80000C00711D12F
:1005E000207A102306EB8010CDE900701A461946D8
:1005F00002A803F055FF2078022803D19AF80000E2
:10060000C00711D1A079102306EB8010CDE900704E
:100610001A46282102A803F043FF2078032803D1BB
:100620009AF80000C00711D1607A102306EB801001
:10063000CDE900701A46462102A803F031FF207868
:10064000042803D19AF80000C0070AD1E0791023EA
:1006500006EB8010CDE900701A465E2102A803F077
:100660001FFFCDE90085042319223E2102A803F0D3
:100670008EFECDE90085042321223E2102A803F04D
:1006800086FE50482023CDE900B03022002102A888
:1006900003F006FF4CA33F22602102A803F0F2FE04
:1006A00002A803F082FF4A48002227A9006805F04B
:1006B00011FA9DF89C0001280DD1207A2071A079B3
:1006C000A070607A6071E079E07084F8009084F83E
:1006D00001908DF89C909DF89D00012812D184F81E
:1006E000089084F8069084F8099084F807903948B7
:1006F00025706570006804F0A9FF002005F01CF863
:100700008DF89D909DF89E0001280AD1607830B147
:100710002078401CC0B22070042800D925708DF8C4
:100720009E909DF89F0001287FF450AF607838B309
:100730002078012806D0022815D0032824D00428C8
:1007400035D12BE0207A401CC0B22072A179042957
:1007500002D900F0010004E00321B0FBF1F201FB3B
:100760001200207223E0A079401CC0B2A071217A4F
:10077000022906D00A21B0FBF1F201FB1200A071A0
:1007800015E000F00300FAE7607A401CC0B20621D1
:10079000B0FBF1F201FB1200607208E0E079401C4E
:1007A000C0B20A21B0FBF1F201FB1200E0718DF83A
:1007B0009F900BE79A760008DC0000208661000815
:1007C000C40000209C6A0008E8BF94E59B9E0000DE
:1007D0000000002014000020FEE7000007490A681E
:1007E00048B1074BB3FBF0F0401ED062C860096807
:1007F000400848637047002050637047D0010020D4
:1008000040420F002DE9F04107461A4800780028C1
:100810002ED1194E8046B41C5FF0030586F8008087
:1008200015490222891C154800F05CFC307800282C
:10083000FCD02088B0FBF5F105FB110000EB400077
:1008400061883844B1FBF5F205FB1211405C0028C9
:10085000E4D12088B0FBF5F105FB110000EB40006E
:1008600061883844B1FBF5F205FB121101224254B4
:10087000BDE8F081D1000020E20000200801002046
:10088000014800F0B5BC00003801002030B590F8F8
:1008900040500124AC40C56B6C60046863604368E1
:1008A000102B036803D099600068C26030BD9A6065
:1008B0000068C16030BD70472DE9F14F82B044231C
:1008C00020221E21029803F099FC442330221E218D
:1008D000029803F093FC2F2311223421029803F095
:1008E000D9FD2F2311224B21029803F0D3FDDFF80D
:1008F00050A0DFF8508000254FF008094FF0150B8D
:1009000005EB4501002401EB0A070BEB0516395DE9
:10091000B2B208EBC100CDE90090C4EBC40000EB1B
:100920000410253081B20823029803F0B9FD641C3D
:10093000032CECDB6D1C032DE2DBBDE8FE8F000019
:10094000B4250020846A00082DE9FC471D4D81462E
:100950001D4E28680B2200EB001000EB4000002128
:1009600056F82030484603F085FD002428274FF034
:10097000040828682044411E052912D200EB00100B
:1009800000EB400006EB8000C838CDE9007004EBB6
:10099000840108EBC10081B228231122484603F0EC
:1009A0007FFD641C032CE4DB0F200090288830219D
:1009B00001EBC00081B202233C22484603F082FBD7
:1009C000BDE8FC87C00000204864000872B6FEE75E
:1009D000A8B0002502A8279503F096FD294902A892
:1009E00003F002FE284EDFF8A480294CDFF8A4B003
:1009F00030274FF0FF394FF4005A02A803F008FBEC
:100A00002078302300EBC00006EB4010CDE90070E9
:100A10000022282102A803F043FD1FA33F2200214A
:100A200002A803F027FD1EA33F22602102A803F0C5
:100A300029FD02A803F0B9FD4A4627A9D8F800000D
:100A400005F048F89DF89C00012808D1207851460F
:100A5000401C00F001002070584600F0E0FD9DF8B9
:100A60009D000128C9D1257001225146584600F049
:100A7000DEFD0D48006804F0E9FD002004F05CFE96
:100A8000BBE700009A7600084468000800000020D8
:100A9000CE000020001001404F4E2F4F4646000070
:100AA000E8BF94E59B9E0000140000207CB5002266
:100AB0000421012004F0ECFE434C002301222060BD
:100AC000424800904FF47A7141A005F06FFA6060DF
:100AD00041480090002301224FF4FA713FA005F035
:100AE00065FAA06005F0D6F80025024600952B4671
:100AF0000121606805F09EFA05F0CCF802460095E9
:100B000000230121A06805F095FA04F10C001224DD
:100B1000CDE900400023802232A1354805F07EF85F
:100B2000294800231030CDE90040802231A134480B
:100B300005F074F8244800231430CDE900408022E9
:100B400030A1334805F06AF81F4800231830CDE97A
:100B5000004080222FA1324805F060F81A48002397
:100B60001C30CDE9004080222EA1324805F056F815
:100B7000154800232030CDE9004080222EA13148C5
:100B800005F04CF8104800232430CDE900408022C5
:100B90002DA1304805F042F80B4800232830CDE95C
:100BA000004080222CA1304805F038F80648002388
:100BB0002C30CDE9004080222CA12F4805F02EF8E2
:100BC000BDE87C4004F08CBD00000020A537000883
:100BD000636C6F636B0000000D380008666C69631E
:100BE0006B657200746573747461736B0000000050
:100BF000D13F000854696D655461736B00000000BB
:100C00008D3500084D656E755461736B00000000F2
:100C1000012E0008416C61726D5461736B0000001D
:100C2000A1050008466C6173686C6967687454615B
:100C3000736B0000D109000847616D655461736BE7
:100C4000000000007D0C00084D75736963546173EA
:100C50006B000000B52F000848756D6974757265EA
:100C60005461736B000000005D27000853657474C5
:100C7000696E675461736B0085320008A8B0002567
:100C800001A8269503F040FC604901A803F0ACFCE4
:100C90000C26DFF87C81DFF87C915F4C13274FF046
:100CA000010A01A803F0B4F9012101A803F094FCA2
:100CB00001A8FFF701FE207890B1012804D0022896
:100CC00006D003280CD105E00B2254A32E2104E00A
:100CD00054A300E054A30B22382101A803F0CAFB5F
:100CE000012101A803F078FC0096A0880C2307EBF3
:100CF000001082B22089C0EBC00101EB001023304C
:100D000081B201A803F0FEF9207BC00713D00021B7
:100D100001A803F061FC0096A0880C2307EB0010EB
:100D200082B22089C0EBC00101EB0010233081B2F8
:100D300001A803F0E7F901A803F037FC002226A977
:100D4000D8F8000004F0C6FE9DF89800012823D1D1
:100D50006078F8B9606800EB4001A06849440A5C1B
:100D6000C2B902220A542B4802F04FFA28B129488E
:100D700002F04BFA207084F801A02648FFF742FDEC
:100D8000244802F042FA28B1224802F03EFA2070CC
:100D900084F801A08DF898509DF8990001281BD186
:100DA0002570657000214A4601EB41030020134481
:100DB0001D54401C0328FBDB491C0329F4DB1B48A2
:100DC000C4F804A0C4F808A0006804F03FFC0020A8
:100DD00004F0B2FC8DF899509DF89A00012807D1D3
:100DE0006068401C6060022800DD65608DF89A50E4
:100DF0009DF89B0001287FF454AFA068401CA060C0
:100E0000022800DDA5608DF89B504AE7D06E0008EF
:100E100000000020B4250020D00000204465666555
:100E20006174000057696E00546965001400002069
:100E3000F8B50024009490F824202546012A12D009
:100E4000012280F824204A681F23072A0DD2066851
:100E5000776B521E02EB820293409F430B689340D4
:100E60001F43776319E00220F8BD06680D2A0AD2F5
:100E7000376BD21F02EB820293409F430B68934073
:100E80001F43376309E0F76A0D3A02EB8202934091
:100E90009F430B6893401F43F7620A680723066865
:100EA0000A2A0AD3F7680A3A02EB420293409F43A8
:100EB0008B6893401F43F76008E0376902EB4202FA
:100EC00093409F438B6893401F4337610A68102A01
:100ED00001D0112A20D1124B02689A4217D193688F
:100EE0001B0219D4936843F4000393600968102926
:100EF00012D10C490C4A0968B1FBF2F101EB8101F6
:100F0000490000E0491E00910029FBD104E0816AFC
:100F100041F020018162012480F824502046F8BD70
:100F2000002401404000002040420F000149012000
:100F300008707047E2000020704770472DE9F041CB
:100F40004FF0000704003D467ED0A06A002628B975
:100F5000E66284F82460204600F07EF82046FFF721
:100F60007DFAA16AC90600D420B1A06A40F0100041
:100F7000A06269E0A16A21F4885141F00201A162F6
:100F80006268E169237B0A4347EA43010A43A16897
:100F90004FF48077B94209D0012907D05FF00001F2
:100FA00094F814C0BCF1010F02D00AE03946F7E70B
:100FB000F3B1A36A43F02003A362E36A43F00103A1
:100FC000E3622368D3F804C02CF4694C4CEA010CAA
:100FD000C3F804C021688B68DFF870C003EA0C0313
:100FE00013438B60A168B9420BD0012909D00CE0F2
:100FF000DFF85CC0A3690CEB43330B4343F400619F
:10100000DFE7218A0D05A5F580152168CB6A23F459
:1010100070032B43CB62216889680E4B19409142C3
:1010200008D1E662A16A21F0020141F00101A1624A
:10103000BDE8F081A06A20F0020040F01000A0623C
:10104000E06A40F00100E0620120F1E7FDF7E1FF16
:1010500000E0FFFFFE0E1FFF70B586B000250646BC
:1010600000950195029503950068194988422DD194
:101070001849886940F400708861886900F400703C
:101080000490886940F0040088618869694600F02E
:10109000040004900320009001900F4800F0CAF96A
:1010A0000F4C0E48C4E900058020C4E902504000FE
:1010B00020618000C4E905058000E061204600F061
:1010C00041F908B1FFF782FC3462666206B070BD78
:1010D00000240140001002400008014008000240C6
:1010E000380100202DE9F047894604463B49006855
:1010F0003B4F0E1D9046884201D0B84207D1306860
:1011000010F4702F03D001252846BDE8F08794F82D
:10111000240001280CD0012084F824002046FFF789
:1011200001FA05004FF0000004D084F82400EBE73A
:101130000220EAE7A16A40F60162914341F480711E
:10114000A1622168B94218D1326812F4702F14D00C
:10115000A16A41F48011A1623168490505D5A16AEF
:1011600021F4005141F48051A162A16AC9040AD559
:10117000E16A21F00601E16206E0A26A22F480122F
:10118000A2624968E9E7E06284F82400216A154810
:101190008862216A1448C862216A14480863216879
:1011A0006FF0020008602068816841F480718160FE
:1011B000216843464A464C31206A00F0F1F8206825
:1011C0008168C1F342410729816803D041F480114D
:1011D000816099E741F4A001FAE700000024014092
:1011E00000280140B30400081B05000801050008A1
:1011F0002DE9F05FC16B0C6801680B68D0F840C046
:10120000042202FA0CF2494DDFF824A1494E4A4F5C
:10121000DFF828B1DFF828E122422CD05A072AD57E
:101220000A68920603D40A6822F004020A60016880
:10123000A94201D1042219E0514501D1402215E013
:10124000B14202D14FF4806210E0B94202D14FF4B2
:1012500080420BE0594502D14FF4802206E07145EF
:1012600002D14FF4800201E04FF080622F4908392B
:101270004A60C16A3BE04FF0020808FA0CF818EA2D
:10128000040F4FF000094FF0010235D05FEA837878
:1012900032D50B689B0605D40B6823F00A030B605C
:1012A00080F821200168A94201D1022219E05145AC
:1012B00001D1202215E0B14202D14FF4007210E0BA
:1012C000B94202D14FF400520BE0594502D14FF41C
:1012D000003206E0714502D14FF4001201E04FF0F8
:1012E0000072124908394A6080F82090816A00290A
:1012F0001AD0BDE8F05F0847082505FA0CF525422D
:1013000012D01B0710D50B6823F00E030B6090F86A
:101310004010C36B02FA01F15960826380F821200A
:1013200080F82090016BE2E7BDE8F09F08000240E2
:101330001C000240300002404400024058000240BD
:101340006C00024030B528B308C813491422194470
:10135000B1FBF2F18900C163104981630221417739
:101360001A6843F6F0718A43D0E900142143D0E9AA
:1013700002452C4321430469214344692143846984
:101380002143114319600021416301224277017713
:10139000084630BD012030BDF8FFFDBF000002400F
:1013A00070B5044690F82000002501280CD00120DB
:1013B00084F8200094F821600020012E06D084F8E3
:1013C00020000225284670BD022070BD022684F848
:1013D0002160A0632068066826F0010606602046AA
:1013E000FFF754FAE06A00282068016802D041F053
:1013F0000E0106E021F0040101602068016841F05F
:101400000A0101602068016841F001010160D9E72B
:1014100070B5044600F010F90546601C02D004487F
:101420000078044400F008F9401BA042FAD370BDD4
:10143000340000202DE9F84FDFF8B8910024A9F11D
:10144000040B23460F2709F1040AABF1040EC9E08F
:101450000125A5402A40AA427DD1674ED1F804C09B
:10146000ACEB0608B44532D014DCBCF1030F3AD023
:1014700009DCBCF1000F2AD0BCF1010F1CD0BCF17B
:10148000020F31D11DE0BCF1110F17D0BCF1120FCA
:101490002AD119E0B8F5881F19D006DCB8F5803FCD
:1014A00015D0B8F5801F1FD111E0B8F5001F0ED080
:1014B000B8F5041F18D10AE0CB6815E0CB681B1DF6
:1014C00012E0CB6808330FE0CB680C330CE08B687C
:1014D0002BB1012B4FF0080303D0456104E0042336
:1014E00002E0056100E00023FF2A01D8064601E082
:1014F00000F104064FEA840501D9A5F12005D6F8CC
:10150000008007FA05FC28EA0C0803FA05F548EA0A
:101510000508C6F800804D68ED0062D5374DAE690C
:1015200046F00106AE61AD6924F0030605F0010541
:101530000095334D06EB050CDCF80850A607360F76
:1015400007FA06F825EA0805DFF8B880404503D118
:101550004FF0000817E044E0DFF8AC80404502D1CE
:101560004FF001080FE0DFF8A480404502D14FF0B2
:10157000020808E0DFF89880404502D14FF00308E8
:1015800001E04FF0040808FA06F848EA0508CCF82C
:1015900008804D68D9F80060ED024D4601D516432C
:1015A00000E096432E604D68DAF80060AD025546C3
:1015B00001D5164300E096432E604D68DBF80060CD
:1015C000AD035D4601D5164300E096432E604D689D
:1015D000DEF80060ED03754601D5164300E0964342
:1015E0002E60641C0D682A46E5407FF431AFBDE8EB
:1015F000F88F0000080401400000111000100240A4
:101600000000014000080140000C014000100140B2
:10161000001401408068084000D001207047C26873
:1016200021EA02030A4043EA0241016170470AB11C
:10163000016170470904FBE70148806870470000BA
:101640003400002070B5040025D094F83D0000253A
:1016500020B984F83C50204600F04EF9242084F84C
:101660003D002068016821F00101016020680168E7
:1016700041F4004101602068016821F400410160EB
:1016800000F058FB4D4A6168914201D84C4900E096
:101690004C49884201D2012070BD4B492368B0FB00
:1016A000F1F15E6826F03F060E435E606368934288
:1016B00006D94FF4967359434FF47A73B1FBF3F1A3
:1016C0002368491C1E6A26F03F063143196261688F
:1016D000914210D84900401EB0FBF1F2521CC2F3F7
:1016E0000B02042A01D2042022E0B0FBF1F0401CDE
:1016F000C0F30B001CE0A268F2B301EBC10303EBE3
:101700000116431EB3FBF6F35B1C43F480431B0539
:1017100049D092B301EBC10202EB0111401EB0FBB4
:10172000F1F0401CC0F30B0040F4804040F4004056
:101730002168CA694CF6FF739A431043C861D4E923
:10174000071001432068026822F0C00211430160C3
:10175000D4E9030101432068826848F2FF339A43C9
:1017600011438160D4E9050108432168CA6822F069
:10177000FF021043C86001E00EE016E02068016837
:1017800041F0010101602564202084F83D002563BB
:1017900084F83E50002070BD01EB4106431EB3FBB0
:1017A000F6F35B1CB3E70120C2E701EB4101401EE9
:1017B000B0FBF1F0401CC0F30B00B7E7A0860100BE
:1017C00080841E0000093D0040420F002DE9F84FC3
:1017D0001F4690468A460446DDF82890FFF72CFF06
:1017E000054694F83D0020287FD119230122404965
:1017F0002046009501F052F8002876D194F83C007C
:10180000012872D0012084F83C0020680168C907D3
:1018100003D1016841F0010101602068016821F4F1
:1018200000610160212084F83D00102084F83E0012
:1018300000262664C4F824806785608D20852D48A5
:10184000E0622B464A465146204600F0ADFF90B973
:10185000206841698069009036E02A464946204662
:1018600001F0C2F850B1206C042804D1206801684E
:1018700041F4007101600120BDE8F88F606A2168C1
:1018800000780861606A401C6062618D491E618554
:10189000218D491E89B2218522685369DB435B078C
:1018A0000BD451B100781061606A401C6062608D99
:1018B000401E6085208D401E20852A4649462046D0
:1018C00000F0C0FF0028CED1208D0028C5D154F8EB
:1018D0003D0B016841F400710160202004F81E09ED
:1018E000E67766770020C7E7FFE70220C4E700003D
:1018F000020010000000FFFF10B586B0002100912B
:1019000001910291039100680F4988421AD10F4C4E
:10191000A06940F00800A061A069694600F00800D5
:101920000490C020009012200190032003900848EA
:10193000FFF780FDE06940F40010E061E06900F429
:101940000010049006B010BD00540040001002408A
:10195000000C0140024881680278114481607047A0
:1019600034000020074810B5016841F01001016003
:10197000032000F0A1F8012000F006F800F050F874
:10198000002010BD0020024030B50546204887B039
:10199000C16941F00101C161C06906A900F00100FF
:1019A000009001A800F0A6F90498B8B100F0C2F9BF
:1019B000400018494FF08042B0FBF1F11648491E33
:1019C0000260416040F2E7320021C0E903218160FA
:1019D000816100F0D5FB040003D015E000F0AAF906
:1019E000E7E70D4800F024FC04000DD11C2000F0B6
:1019F00035F8102D07D2002229461C2000F03CF8B3
:101A00000648056000E0012407B0204630BD000014
:101A10000010024040420F00600200203800002009
:101A20000C4808B5816941F001018161816901F0CB
:101A300001010091C16941F08051C161C06900F0AC
:101A4000805000900448416821F0E06141F000714D
:101A5000416008BD0010024000000140002809DB81
:101A600000F01F02012191404009800000F1E020B8
:101A7000C0F8001170470000F0B40E4B1B680C4614
:101A8000C3F30223C3F10705042D00D90425191D52
:101A9000072901D2002300E0DB1E012606FA05F12A
:101AA000491E214099409E40761E16403143F0BCAD
:101AB00001F067BE0CED00E0064900F0070208687F
:101AC0004FF6FF03184040EA0220034A1043086023
:101AD000704700000CED00E00000FA052DE9F84326
:101AE00005460078354CC00754D0E0690026C00098
:101AF00008D4E06940F08050E061E069012600F020
:101B0000805000902E480168C90512D401688046B3
:101B100041F480710160FFF78FFD074605E000BFCB
:101B2000FFF78AFDC01B642823D8D8F80000C00541
:101B3000F6D5206A10F4407021D0A98801F44071D4
:101B400081421CD0206A1F49012220F440700A60A3
:101B500000220A602062C00711D0FFF76DFD074622
:101B600041F2883808E000BFFFF766FDC11B414520
:101B700002D90320BDE8F883206A8007F4D5206AE3
:101B8000696820F44070084320621EB1E06920F0CB
:101B90008050E0612878800705D56068A96820F446
:101BA0004040084360602878C00605D56068E96851
:101BB00020F48000084360600020DBE70010024052
:101BC00000700040400442422DE9F0470F460500F6
:101BD00061D0434E306800F00700B84209D2306847
:101BE00020F0070038433060306800F00700B8424A
:101BF00051D128683B4C810712D5400703D5606856
:101C000040F4E06060602878000703D5606840F425
:101C1000605060606068A96820F0F0000843606070
:101C20002878C00728D06868012810D021680228C9
:101C300010D0890700292EDA616821F003010143E1
:101C40006160FFF7F9FC804641F288390DE02168B8
:101C50008903EFE78901EDE7FFF7EEFCA0EB080150
:101C6000494502D90320BDE8F0876068696800F043
:101C70000C00B0EB810FEFD1306800F00700B842E4
:101C80000BD9306820F0070038433060306800F02E
:101C90000700B84201D00120E5E72878400705D5C4
:101CA0006068E96820F4E060084360602878000715
:101CB00006D56068296920F4605040EAC100606080
:101CC00000F048F86168084AC1F30311515CC8404C
:101CD0000649086006480068FFF756FE0020C2E784
:101CE00000200240001002408E60000840000020EA
:101CF000380000200F2202600C4A536803F00303EF
:101D00004360536803F0F0038360536803F4E063B7
:101D1000C36052684FF4E06303EAD20202610448F0
:101D2000006800F0070008607047000000100240E3
:101D3000002002400448054900684968044AC1F38C
:101D40000221515CC8407047400000200010024052
:101D50009E6000080E4A51680E4801F00C03042BE7
:101D600011D0082B0FD10C48C1F38343C903C05CC9
:101D70000AD55168084AC1F34041921E515C054A98
:101D80005043B0FBF1F070470449484370470000EE
:101D90000010024000127A007E60000800093D0039
:101DA0002DE9F84F040070D02078C04DC00749D00D
:101DB0006868C0F38100012807D06868C0F381001B
:101DC000022809D16868C00306D52868800339D580
:101DD00060680028E7D035E06068B0F5803F0BD040
:101DE00010B1B0F5A02F11D0286820F48030286001
:101DF000286820F4802002E0286840F480302860C1
:101E0000606890B1FFF718FC06460AE0286840F4C5
:101E100080202860F0E700BFFFF70EFC801B6428DD
:101E200073D828688003F7D50CE0FFF705FC064659
:101E300005E000BFFFF700FC801B6428F0D828688D
:101E40008003F7D420789A4E80074FF001094FF0B5
:101E5000000839D5686810F00C0F07D06868C0F327
:101E60008100022809D16868C00306D42868800769
:101E700014D52069012808D110E02069B0B1C6F856
:101E80000090FFF7D9FB074605E00AE1FFF7D4FB16
:101E9000C01B0228C4D828688007F7D52868616964
:101EA00020F0F80040EAC10028600DE0C6F800808C
:101EB000FFF7C2FB074604E0FFF7BEFBC01B02288A
:101EC00023D828688007F7D4207800072CD57948D4
:101ED000A169D9B1C0F80090FFF7AEFB074604E056
:101EE000FFF7AAFBC01B02280FD8686A8007F7D546
:101EF00071484FF4FA510068B0FBF1F0009000BF58
:101F00000098411E0091FAD20EE080E0C0F80080F7
:101F1000FFF792FB074604E0FFF78EFBC01B022889
:101F200075D8686A8007F7D42078400760D5E869DB
:101F30000027C00008D4E86940F08050E861E869F3
:101F4000012700F0805000905C480168C90513D457
:101F50000168834641F480710160FFF76DFB8246A2
:101F600006E000BFFFF768FBA0EB0A0064284ED82C
:101F7000DBF80000C005F5D5E06801280AD008B1FB
:101F8000052813D0286A20F001002862286A20F072
:101F9000040002E0286A40F001002862E06841F293
:101FA000883B98B1FFF748FB82460BE0286A40F077
:101FB00004002862EEE700BFFFF73EFBA0EB0A013A
:101FC00059455AD8286A8007F6D50CE0FFF734FB4C
:101FD000824605E0FFF730FBA0EB0A0159454CD8DB
:101FE000286A8007F6D41FB1E86920F08050E861C4
:101FF000E06988B36968C1F38101022944D00228ED
:10200000C6F8608004D0FFF717FB044638E034E0E0
:10201000FFF712FB074604E0FFF70EFBC01B022888
:102020002BD828688001F7D4206AB0F5803F05D10D
:102030006868A16820F4003008436860D4E90801AA
:102040000843696821F4741108436860C6F8609019
:10205000FFF7F2FA044606E025E000BFFFF7ECFACE
:10206000001B022809D828688001F7D51BE000BFB3
:10207000FFF7E2FA001B022802D90320BDE8F88F1F
:1020800028688001F4D40EE00128F7D06868226A3D
:1020900000F48031914204D1616A00F470108842EA
:1020A00001D00120EAE70020E8E70000001002402C
:1020B0000000424280044242400000200070004084
:1020C0007047704710B590F83C20012A22D00122B9
:1020D00080F83C20CA688C6822F4407222434C6825
:1020E00022F4806222430C6822F4006222430C69CD
:1020F00022F4805222434C6922F400522243C969DF
:10210000002322F480420A4301684A6480F83C308C
:10211000002010BD022010BD70B590F83C20012AAF
:1021200026D0012480F83C40022280F83D2003683C
:102130005A689D6822F070060A6832435A600D4B57
:1021400002689A4208D0B2F1804F05D00A4B9A42F9
:1021500002D00A4B9A4204D1496825F08003194302
:10216000916080F83D40002180F83C10084670BD29
:10217000022070BD002C0140000400400008004017
:1021800010B5040003D094F83D0010B107E0012021
:1021900010BD002084F83C00204600F01FF802200B
:1021A00084F83D00211D206801F0CEF8012084F85C
:1021B000460084F83E0084F83F0084F8400084F82C
:1021C000410084F8420084F8430084F8440084F815
:1021D000450084F83D00002010BD000008B5114AFC
:1021E00001681148914208D1816941F4006181611F
:1021F000806900F40060009008BD0C4A9142FBD158
:10220000C16941F00201C161C069002200F0020011
:10221000009011461D20FFF72FFCBDE808401D204F
:10222000FFF71CBC002C01400010024000040040DD
:1022300090F83D10012901D001207047022180F85B
:102240003D100168CA6842F00102CA6000680B498B
:10225000884208D0B0F1804F05D00949884202D0A9
:102260000849884204D1816801F00701062903D09A
:10227000016841F00101016000207047002C01401D
:10228000000400400008004070B5044690F83C008F
:102290000025012817D0012684F83C60022084F82C
:1022A0003D002068826822F0770222F47F4282603B
:1022B0000868502838D00DDC20284FD005DC90B3BA
:1022C000102811D14AE0022070BD302846D04028A5
:1022D0000AD13BE060282FD070280DD0B0F5805F88
:1022E00003D0B0F5005F12D0012584F83D600020D6
:1022F00084F83C00284670BDCB68D1E901212068F4
:1023000001F06BF82068816841F0770109E0CB6843
:10231000D1E90121206801F060F82068816841F46A
:1023200080418160E1E719E0CA684968206801F0EE
:1023300009F95021206806E0CA684968206801F060
:1023400012F96021206801F052F8CEE7CA684968A6
:10235000206801F0F7F840212068F4E72268014680
:102360001046F0E770472DE9F04104460068C66862
:1023700005694FF00007A90713D5B10711D5F91E5C
:10238000016101202077206880698007204602D003
:10239000FFF7E8FF04E000F0A5F8204600F037F969
:1023A0002777680716D5700714D521686FF00400E9
:1023B0000861022020772068806910F4407F204661
:1023C00002D0FFF7CFFF04E000F08CF8204600F0C9
:1023D0001EF92777280715D5300713D521686FF028
:1023E00008000861042020772068C0698007204623
:1023F00002D0FFF7B7FF04E000F074F8204600F0C9
:1024000006F92777E80616D5F00614D521686FF08F
:1024100010000861082020772068C06910F4407F10
:10242000204602D0FFF79EFF04E000F05BF8204654
:1024300000F0EDF82777E80708D0F00706D021680C
:102440006FF001000861204600F068F9280608D501
:10245000300606D521686FF0800008612046FFF73E
:102460002FFE680608D5700606D521686FF040007B
:102470000861204600F070F9A8060AD5B00608D514
:1024800021686FF0200008612046BDE8F041FFF7A9
:1024900018BEBDE8F081000000B585B000210091B4
:1024A00001910291039100680B49884212D10B48B7
:1024B000816941F0040181618069694600F004008E
:1024C00004904FF480700090022001900390044823
:1024D000FEF7B0FF05B000BD002C01400010024027
:1024E00000080140704770B5044690F83C00002693
:1024F0000D4601280FD0012084F83C006AB1042A5F
:102500001DD0082A2FD00C2A3FD00126002084F8A5
:102510003C00304670BD022070BD206800F070FFA6
:102520002068816941F0080181612068816921F09A
:1025300004018161206881692A69114311E02068E2
:1025400000F086FF2068816941F4006181612068A4
:10255000816921F480618161206881692A6941EA89
:1025600002218161D2E7206800F09EFF2068C169E6
:1025700041F00801C1612068C16921F00401C16115
:102580002068C1692A69114311E0206800F0B8FF92
:102590002068C16941F40061C1612068C16921F40A
:1025A0008061C1612068C1692A6941EA0221C16173
:1025B000ACE710B5040003D094F83D0010B107E07B
:1025C000012010BD002084F83C00204600F01EF8D9
:1025D000022084F83D00211D206800F0B5FE012096
:1025E00084F8460084F83E0084F83F0084F84000F8
:1025F00084F8410084F8420084F8430084F84400E1
:1026000084F8450084F83D00002010BD70477047F5
:1026100010B50446022249B104290ED0082913D06E
:1026200094F84100012816D0012010BD94F83E0016
:102630000128F9D184F83E200FE094F83F000128EA
:10264000F2D184F83F2008E094F840000128EBD153
:1026500084F8402001E084F841200122206800F045
:10266000AFFE0F492068884203D1426C42F4004219
:1026700042642068884208D0B0F1804F05D00949F3
:10268000884202D00849884204D1816801F00701DC
:10269000062903D0016841F001010160002010BD4E
:1026A000002C0140000400400008004030B5044602
:1026B0000D460068002200F083FE174B41F2111115
:1026C00020688A10984209D1036A0B4206D1036A36
:1026D000134203D1436C23F4004343642068036A2C
:1026E0000B4206D1016A114203D1016821F00101B8
:1026F000016001203DB1042D08D0082D09D084F8D7
:102700004100002030BD84F83E00FAE784F83F0025
:10271000F7E784F84000F4E7002C014010B50446C8
:102720000068B0F1804F01D1FFF714F90849206823
:1027300088420CD107480178491CC9B2017014299C
:1027400005D100210170BDE8104000F0ADB910BD09
:1027500000040040300000207047FEE708B500206C
:10276000044D441E009022466946286803F0B2F9E1
:10277000F9E700000000002001684A69D2435205D1
:102780000FD46FF480624A61002140F8301F20228C
:1027900042738173026942F00402026101730120F5
:1027A0007047002070470000F8B50446C06A1E4616
:1027B0000D461746082807D0012805D010F5803FA0
:1027C00002D0206B122804D12068016841F4807186
:1027D0000160134600224FF001112046009600F0E0
:1027E0005DF840B120680068C00502D54FF4007064
:1027F00020640320F8BD2069B0F5804F0ED006207C
:10280000216800EAD51040F0F000086133463A46EE
:102810000B49204600F08AF878B902E005F0FE0086
:1028200000E0E8B221680861054933463A46891F4D
:10283000204600F07BF80028DCD00120F8BD000025
:102840000800010070B516460D4604461EE02046FD
:10285000FFF792FF08B1012070BD681C16D0FEF78B
:10286000EBFE801BA84200D885B920684069C043B0
:1028700040070BD5002044F8300F20216173A0736E
:10288000216941F0200121612073E4E7206840695B
:10289000C0434007DBD4002070BD00002DE9F047A5
:1028A000984617460D460446C1F30746DDF82090CA
:1028B0002AE000BFB8F1FF3F26D0FEF7BDFEA0EB37
:1028C0000901414502D8B8F1000F1DD12068012E41
:1028D00016D0806925EA00000004000C12D0002008
:1028E000B84211D1002044F8300F20216173A07349
:1028F000216941F02001216120730120BDE8F087AA
:102900004069E7E70120EBE72068012E0AD08069E3
:1029100025EA00000004000C06D00020B842C9D00F
:102920000020EBE74069F3E70120F7E72DE9F047E6
:10293000984616460D4604464FF000094FF0200A0F
:10294000C1F3074723E020684069C043400515D420
:102950002068016841F40071016021686FF48060B3
:102960004861C4F8309084F83DA084F83E90216C12
:1029700041F00401216484F83C9021E0701C06D0F1
:10298000FEF75AFEA0EB0800B04203D816B1012FA3
:102990001FD021E02068012F15D0806925EA0000B2
:1029A0000004000C18D000BF44F8309F84F80DA03C
:1029B00084F80E90216941F02001216184F80C9087
:1029C0000120BDE8F087406925EA00000004000C02
:1029D000EAD12068406901E02068806925EA0000AA
:1029E0000004000CAFD1ECE770B516460D46044666
:1029F0001EE02046FFF7C0FE08B1012070BD681C34
:102A000016D0FEF719FE801BA84200D885B92068B1
:102A10004069C04300060BD5002044F8300F202148
:102A20006173A073216941F0200121612073E4E703
:102A300020684069C0430006DBD4002070BD10B59B
:102A4000002202EB4203002103445C5C3CB1491CC0
:102A50000329FADB521C032AF3DB012010BD0020FE
:102A600010BD000070B50F4D00244FF400612846E2
:102A7000FEF7D0FD00B901244FF480612846FEF72F
:102A8000C9FD00B9022402212846FEF7C3FD00B9A2
:102A9000032401212846FEF7BDFD00B90424204689
:102AA00070BD0000000C0140F8B5214C207860702A
:102AB000FFF7D8FF207000210091617801251D4E9D
:102AC000012909D1002831D18DF8005000231A4680
:102AD0006946306802F0C6FF607802280AD1207883
:102AE000002823D18DF8015000231A46694630682A
:102AF00002F0B8FF607803280AD12078002815D1A9
:102B00008DF8025000231A466946306802F0AAFF89
:102B1000607804280AD12078002807D18DF8035066
:102B200000231A466946306802F09CFFF8BD000099
:102B3000E0000020000000203EB50024164800946C
:102B4000019414490294016089158160047304752D
:102B5000022505614FF460214460C161FEF7EEF982
:102B600008B1FDF733FF0094012469460A48CDE916
:102B70000145FEF75DF908B1FDF728FF69460648F3
:102B8000CDE90045FEF754F9002801D0FDF71EFFFE
:102B90003EBD00000024014008010020094808B59E
:102BA000416941F0010141614069002200F00100EA
:102BB000009011460B20FEF75FFFBDE808400B2098
:102BC000FEF74CBF00100240F0B585B00024294844
:102BD0000094019402940394816941F01001816191
:102BE000816901F010010491816941F02001816146
:102BF000816901F020010491816941F00401816142
:102C0000816901F004010491816941F00801816149
:102C10008069012200F00800174E550304902946F0
:102C20003046FEF704FD154F012204213846FEF719
:102C3000FEFC0220CDE90240009511256946019570
:102C40003046FEF7F7FB0420CDE900050320CDE96F
:102C5000024069463846FEF7EDFB40F60340CDE9F9
:102C600000040120029069460548FEF7E3FB05B029
:102C7000F0BD0000001002400010014000080140BB
:102C8000000C01400D4810B50B4901600C49416032
:102C900000214FF480428160C0E9031241618161EB
:102CA000C1610162FEF7CEFC002803D0BDE81040F0
:102CB000FDF78CBE10BD0000005400407C010020D8
:102CC000801A060010B596B000240F941094119449
:102CD000129413941C2108A81494FDF728FB2021BA
:102CE0006846FDF724FB2A48284901604721C0E9CE
:102CF000011440F2E731C0E903148021C0E9054125
:102D0000FFF73EFA08B1FDF761FE4FF480500F90D7
:102D10000FA91F48FFF7B8FA08B1FDF757FE1C4886
:102D2000FFF747FC08B1FDF751FE139413A91848AB
:102D30001494FFF7F1F908B1FDF748FE70200890F0
:102D400040F2F310CDE909040B940C940D94002289
:102D500008A90F480E94FFF7C6FB08B1FDF736FE31
:102D600000944FF40050CDE9044002940194039480
:102D7000694607480794FFF7A5F908B1FDF726FE55
:102D80000348FFF789FB16B010BD0000002C01407E
:102D9000D001002010B586B000241748009401949B
:102DA00002940394049413490594016041F61F4171
:102DB000C0E901140921C0E9031480218161FFF7F2
:102DC000DFF908B1FDF702FE4FF48050009069462C
:102DD0000948FFF759FA08B1FDF7F8FD049404A972
:102DE00005480594FFF798F9002801D0FDF7EEFD9E
:102DF00006B010BD0004004018020020FEE70000ED
:102E0000A8B0002502A8279501F07EFB5B4902A827
:102E100001F0EAFBDFF868814FF010094FF0010A7A
:102E20004FF0020B302602A801F0F2F85548444654
:102E30004F460078082308EB0010CDE900900022EF
:102E4000582102A801F02CFB4F48082300220078EB
:102E5000602104EB0010CDE9007002A801F020FB16
:102E60004A48082300220078702104EB0010CDE9C5
:102E7000007002A801F014FB4548082300220078E6
:102E8000782104EB0010CDE9007002A801F008FBE6
:102E9000CDE900BA54465F46022304226B2102A802
:102EA00001F075FACDE90074022309226B2102A812
:102EB00001F06DFA00240F2706EBC40102233C2227
:102EC00002A8009701F0DEF8641CE4B2052CF3D3ED
:102ED00002A8FDF739FD02A801F067FB2D4800228A
:102EE00027A9006802F0F6FD9DF89C00012816D085
:102EF0009DF89D0001282DD09DF89E00012833D01B
:102F00009DF89F0001288ED123490868401C086065
:102F1000042801DD042008608DF89F5083E71E48D7
:102F2000006805280DD2DFE800F003050F1113003B
:102F30001A4800E01A48006802F088FB002002F0FE
:102F4000FBFB8DF89C506EE71648F4E71648F2E755
:102F50001648F0E71648006802F078FB002002F0FF
:102F6000EBFB8DF89D505EE70B480168491E016040
:102F700000D505608DF89E5055E70000D06E000822
:102F8000E6600008BB000020B8000020BC00002064
:102F9000B900002000000020C00000202800002010
:102FA000240000201C000020200000201800002029
:102FB00010000020A8B04A48002527950068456306
:102FC00029464748FFF724FB02A801F09DFADFF8E5
:102FD0001481DFF814A1DFF814B1DFF81491454F24
:102FE000454E102402A801F013F8307810B10128E2
:102FF0000ED104E0302310224048282103E040484D
:10300000402310222021CDE9004002A801F048FA17
:10301000CDE9004810232822182102A801F040FA27
:10302000CDE9004A10232822582102A801F038FADD
:103030003878D8B1012802D0022809D116E03148E9
:103040001023CDE900402822382102A801F028FAF7
:1030500002A801F0AAFA002227A9D9F8000002F07C
:1030600039FD9DF89C00012807D017E0CDE9004B01
:1030700010232822382102A8E8E7387820B1012857
:1030800005D0022806D007E000F064F804E000F064
:103090003DF801E000F04AF88DF89C509DF89D0045
:1030A00001280BD100F072F817483570006802F063
:1030B000CDFA002002F040FB8DF89D509DF89E0057
:1030C00001280AD13078401C00F00100307000F077
:1030D0005DF800F03FF88DF89E5000F065F881E74C
:1030E000D0010020506E0008706E0008B06E00081D
:1030F00000000020E8000020E9000020706D0008BA
:10310000D06D0008906E00081400002010B5054C2A
:10311000054902202070096800204863FEF78CFAF8
:10312000A06010BDE8000020D001002010B5084CC0
:10313000012020706188206930F82100FDF74EFBE6
:10314000FEF77AFAA168401AE1680844E06010BD11
:10315000E800002010B50A4C01202070607818B1FA
:10316000012803D0206903E0064800E006482061FA
:103170000088FDF733FBFEF75FFA606010BD0000CA
:10318000E8000020DC6A0008886B00080449054A52
:1031900000200870126850634880C86070470000C3
:1031A000E8000020D001002070B5154C20780128DF
:1031B00021D16188206900EB81004688FEF73CFA46
:1031C000E168451A6068281AB04214D30D490020FE
:1031D000096848630520FEF71BF96088401C80B22F
:1031E0006080216931F82000A0F57F41FF3903D0CC
:1031F000FDF7F4FA656070BDBDE87040FFF7C6BF2B
:10320000E8000020D0010020FEE710B5002101EB0E
:1032100041021318845C5A78944208D19B789A42F0
:1032200005D122B101EB41010844407810BD491C91
:103230000329ECDB00214318445CDA78944206D180
:103240009B799A4203D112B10844C07810BD491C41
:103250000329F0DB027801798A4203D1027A914294
:1032600000D131B982788A4205D18279914202D166
:1032700009B1084610BDFFF7E2FB0028FAD0032091
:1032800010BD000008B50020044D441E00902246E9
:103290006946286802F01EFCF9E7000000000020E3
:1032A00010B502F0E9FC012803D0BDE8104002F09F
:1032B000D9BA10BD30B593B028216846FDF737F86C
:1032C00014210AA8FDF733F8002501200F95109569
:1032D0001195010412958DE8230004904FF4E0103D
:1032E000CDE90810022407946846FEF759FD08B19D
:1032F00072B6FEE70AA90F2081E831004FF4806022
:10330000CDE90D0502210AA8FEF75EFC08B172B6F0
:10331000FEE74FF4004011900F940FA8FEF7DEFB7C
:10332000002801D072B6FEE713B030BD7047000030
:103330000148FFF718B80000600200200148FFF7BD
:1033400012B8000018020020F0B50268194B1A4CA0
:103350001A4D4FF08047984205D0B84203D0A042A2
:1033600001D0A84203D122F070064A683243984245
:1033700005D0B84203D0A04201D0A84203D122F424
:103380004074CA6822434C6922F0800222430260E2
:103390008A68C2620A688262984201D1096901633F
:1033A000012141610169C90703D0016921F00101CF
:1033B0000161F0BD002C0140000400400008004005
:1033C00010B501F01F030121046A99408C43046287
:1033D000016A9A401143016210BD10B5846842EA47
:1033E000032224F47F440A432243826010BD826892
:1033F00022F070020A4342F007018160704700002A
:1034000030B5036A026A22F00102026242688469EE
:1034100024F073050C682C4323F002058B682B43C2
:103420000A4DA8420BD123F00805CB6822F4407264
:103430002B434D6923F0040315438A692A434260F4
:10344000846149684163036230BD0000002C014083
:1034500030B5026A036A23F010030362436884698B
:103460000D6824F4E64444EA05248D6822F0200225
:1034700042EA05120B4DA8420ED1CD6822F080021F
:1034800042EA05124D6923F4406343EA85038D69DE
:1034900022F0400243EA8503436084614968816306
:1034A000026230BD002C014030B5036A026A22F48A
:1034B000807202624268C46923F4007324F07305C9
:1034C0000C682C438D6843EA05230C4DA8420ED1AD
:1034D000CD6823F4006343EA05234D6922F440528A
:1034E00042EA05128D6923F4806342EA05124260C4
:1034F000C4614968C163036230BD0000002C014013
:1035000030B5046A026A22F4805202624268C369DA
:103510000D6823F4E64343EA05238D6824F4005440
:1035200044EA0534064DA84204D14D6922F4804294
:1035300042EA85124260C36149680164046230BD99
:10354000002C014010B5036A046A24F001040462EF
:10355000846924F0F00444EA021423F00A020A43C6
:103560008461026210BD10B5036A046A24F010047D
:103570000462846923F0A00324F4704444EA023214
:1035800043EA01118261016210BD00006A48A8B0DF
:10359000006802F0D1F8DFF8A491D9F8000002F039
:1035A000CBF86748006802F0C7F86648006802F088
:1035B000C3F86548006802F0BFF86448006802F08C
:1035C000BBF86348006802F0B7F8DFF888A1DAF8C2
:1035D000000002F0B1F84FF0000802A8CDF89C807E
:1035E00000F092FF5C4902A800F0FEFF1025DFF812
:1035F0006CB1202702A800F00BFD59480022CDE94C
:1036000000501023114602A800F04AFF554810232D
:10361000CDE900500022702102A800F041FF524C79
:1036200010235E46E0781A460BEB8010CDE900705F
:10363000002102A800F034FF2078102306EB801050
:10364000CDE900701A46182102A800F029FF207960
:10365000102306EB8010CDE900701A46362102A82F
:1036600000F01EFF6078102306EB8010CDE900709B
:103670001A464E2102A800F013FF3C4E6079082341
:1036800006EB0010CDE900501B22662102A800F0D5
:1036900007FFA078082306EB0010CDE900501B229D
:1036A0006E2102A800F0FCFE04260124CDE900648E
:1036B000334619222E2102A800F069FECDE90064EC
:1036C000042321222E2102A800F061FE28A33F221C
:1036D000002102A800F0D6FE27482023CDE90050A3
:1036E0003022602102A800F0DBFE02A800F05DFF9E
:1036F0002248002227A9006802F0ECF99DF89C00FE
:1037000001280ED09DF89D0001287FF473AFDAF8F0
:10371000000001F09BFF002002F00EF88DF89D8064
:1037200068E7D9F8000001F091FF002002F004F8EA
:103730008DF89C805EE700000C0000201400002043
:10374000180000201C000020200000202400002081
:10375000280000202C0000209A76000886610008CE
:10376000A6600008C6600008B8000020E6600008F7
:10377000E88F9CE58D95000006640008000000209D
:10378000FEE70907090E002804DB00F1E02080F8BD
:103790000014704700F00F0000F1E02080F8141DC5
:1037A0007047000018488178491CC9B281700A2905
:1037B00028D1002181704279521CD2B24271062A6E
:1037C00020D141714278521CD2B242700A2A19D1DA
:1037D00041700279521CD2B20271062A12D10171D3
:1037E0000278521CD2B202700A2A03D10170C27848
:1037F000521CC270C278022A04D10278042A01D174
:10380000C170017070470000B80000200248C16814
:10381000491CC16070470000D0000020FEF7A2F8EC
:10382000FFF748FDFFF7D0F9FFF7B8F9FFF72AFADD
:10383000FFF748FAFFF7AEFAFFF77EF90248FEF706
:10384000F7FCFDF733F9FEE7180200202DE9F041FF
:103850001E4C0F460546E6682068001D01F004FE78
:1038600038B9206890F82C100120884021698143E4
:103870002161681C15D1A7B115492268486890607C
:1038800023688268DA6022688368121D5A602268A1
:10389000121D8260206841610868401C0860BDE814
:1038A000F08120683544B5424560216805D2E06B5F
:1038B000BDE8F041091D01F0FFBDA06B091D01F03D
:1038C000FBFDA06A8542EAD2A562E8E74400002039
:1038D000780500202DE9F041054601F011FE354C38
:1038E000A068401CA0602068334F10B1606930B3FD
:1038F0002BE02560A068012827D1002606EB860072
:1039000007EB800001F0CAFD761C202EF6D32B4871
:1039100001F0C4FD2948143001F0C0FD27482830CB
:1039200001F0BCFD25483C3001F0B8FD2348503083
:1039300001F0B4FD2148A0631430E06305E0206885
:10394000E96AC06A884200D82560606A0121401C8B
:103950006062E86A226981401143216100EB8000C6
:1039600007EB80004068A8608168E9608268291DD3
:1039700051608160E86A00EB800007EB80016961BB
:1039800057F82010491C47F8201001F0C7FD606966
:1039900000280CD02068E96AC06A884207D208492A
:1039A0004FF080500860BFF34F8FBFF36F8FBDE8BB
:1039B000F081000044000020A8020020280500201B
:1039C00004ED00E010B501F09BFD0C4C206880B9BF
:1039D0000B4801F063FD0A48143001F05FFD084810
:1039E000E0601430206100220C21052001F050FF1E
:1039F0002060BDE8104001F091BD0000840000206F
:103A00008C05002030B4026C0B46002A0BD0C16834
:103A10001144C1608468A14201D30168C16030BC17
:103A20001846FCF71DBC30BC70472DE9F041856B92
:103A3000164604460027026CFAB17EB1E068FCF736
:103A40000FFCE168206C091AE1602268914202D201
:103A5000A168081AE060022E0DD00EE06068FCF745
:103A6000FFFB216C606808446060A168884204D351
:103A70002068606001E005B16D1E6D1CA5633846CD
:103A8000BDE8F08110B50446006B01F051FD204601
:103A9000BDE8104001F04CBD0E484FF40051420704
:103AA00006D0C01D0B4920F00700411AC1F5005196
:103AB000094A00230144C2E900030839143A21F0FD
:103AC000070111604B600B600B1AC0E90013936093
:103AD00053607047B4050020B0000020144E154C10
:103AE000A6F52F774FF08058DFF84C9012E000BF1A
:103AF00001F006FDF068C568281D01F0B5FCA0685E
:103B0000401EA0606068401E606001F007FD28460E
:103B1000FFF7B8FF60680028EAD138680128F9D9B2
:103B2000C9F80080BFF34F8FBFF36F8FF2E700003B
:103B3000640500204400002004ED00E02DE9F0477A
:103B40009946DDE9096480466FF00303206B03EBBF
:103B50008202089D104420F0070761B1002023185D
:103B60000A5C83F834200A5C12B1401C1028F6D39A
:103B7000002084F84300202D00D31F25201DE5627E
:103B800001F097FC04F1180001F093FC2461C5F1E9
:103B900020006462A0614A464146384600F006FAB9
:103BA0002060002E00D03460BDE8F08730B51149A8
:103BB00000E011460A688242FBD34B685C188442DD
:103BC00003D1406818444860084643681C18944272
:103BD00009D1084C143C2468A24209D052681A4406
:103BE00042600A6812680260814200D0086030BDFD
:103BF0000460F9E7B000002070B5002441600B4D6F
:103C00000061914206D8D11A8269914206D2011D03
:103C1000286907E09A4203D2994201D3012403E0C4
:103C2000011DE86801F048FC204670BD84000020BA
:103C300010B5044601F064FCA06B28B15FF00004ED
:103C400001F06CFC204610BD0124F9E770B5064672
:103C50000D480D46C068C068C468201D01F004FC12
:103C600094F82400410705D52A463146204600F045
:103C7000ABF803E000F0FE0084F824002046216A3F
:103C8000BDE8704008470000840000207FB5324E38
:103C90005AE00098002857DB029C606910B1201D93
:103CA00001F0E2FB03A800F0B1F8054600980A28ED
:103CB0004AD2DFE800F0490505282E3D0505282EEB
:103CC00094F824002A4640F0010084F82400019969
:103CD000A069019B01442046FFF78EFF38B394F89A
:103CE0002400410707D50198A1692A4601442046CE
:103CF00000F06AF803E000F0FE0084F82400216A76
:103D00002046884720E014F8240F00F0FE002070C1
:103D10001AE094F824002B4640F0010084F82400B7
:103D20000198A06141191A462046FFF765FF0BE094
:103D300094F82400810703D4204601F0F9FB03E046
:103D400000F0FE0084F8240000226946306801F08B
:103D5000C1FE00289DD17FBD84000020F8B50D462E
:103D6000064601F03DFD684600F050F80446009814
:103D700010B102F08DF8F8BD1148ADB101690968C4
:103D8000D9B10025311B2A46006801F0FFFB02F083
:103D90007FF80028EFD10B494FF080500860BFF347
:103DA0004F8FBFF36F8FF8BDA642EBD802F070F8CB
:103DB00021463046FFF74AFFF8BD0125E2E7000043
:103DC0008400002004ED00E070B516460C46054660
:103DD00004E0A869296A044428468847A86923465C
:103DE000011932462846FFF707FF0028F1D170BDC0
:103DF0000548816B096821B1816BC96809688162D6
:103E000070474FF0FF31FAE7440000202DE9F04100
:103E1000064601F03FFF0E4C0546A068854214D2CD
:103E20004FF0FF3704E0C06839460068FFF70EFF27
:103E3000E06801680029F6D12169C4E90310012076
:103E400030602846A560BDE8F0810020F8E700005A
:103E500084000020BF2080F31188BFF34F8FBFF391
:103E60006F8FFEE7064B426900219A4206D1806AB5
:103E7000A3F12802904201D000B901210846704701
:103E800078050020074CE068016841B1C068002156
:103E9000D0F80000FFF762FFFFF7F8FEF3E701211B
:103EA0000020F7E7840000202DE9F041044601F0EE
:103EB00027FB94F9455004F1240609E0606A48B1F3
:103EC000304601F07FFF08B101F08AFB6D1E6DB234
:103ED000002DF3DC4FF0FF3684F8456001F01EFB47
:103EE00001F00EFB94F9445004F1100709E0206939
:103EF00048B1384601F066FF08B101F071FB6D1E54
:103F00006DB2002DF3DC84F84460BDE8F04101F0AF
:103F100005BB000070B50446002601F061FC224D8F
:103F2000286808B9FFF7B8FDCCB304F00700C0F16A
:103F30001000C1438C4232D8211800292FDD686857
:103F400081422CD8184814300246146801E02046FB
:103F5000144662688A4202D22268002AF7D12A688F
:103F600094421CD006682268026060680836421AD3
:103F7000102A04D9601842606160FFF717FE61687B
:103F80006868401A6860AA68904200D2A86041F050
:103F90000040606000202060E868401CE86001F09C
:103FA00077FF304670BD00009C00002010B5031F55
:103FB0004FF080741C601B1F21F001011960191F54
:103FC000024B0B60143940380A6010BD553E0008A2
:103FD00008B500200C4D441E009022466946286812
:103FE00001F078FD9DF80000012803D10021074869
:103FF000FEF70EFB9DF801000128EED100210348D9
:10400000FEF754FBE9E7000000000020D00100208B
:1040100001680A7C90F83810406B5143C900FCF7E6
:1040200064B910B5044600F061FA204600F09EFA2B
:104030000028FAD12046BDE81040002100F0BEBAA9
:104040002DE9F8438146089C1E46101980B2009065
:10405000881983B215468846484600F06FFA002852
:104060000ED00027002C0BD033462A464146484646
:10407000009700F0C9F86D1C641EADB2A4B2F1E760
:10408000BDE8F8832DE9F8431C4680461019401C12
:1040900080B200900819401C83B21546101B82B2F2
:1040A0000E46081B81B2089F404600F047FA0028E0
:1040B00006D023462A4631464046009700F092FB40
:1040C000BDE8F8832DE9F8431C4680461019401CD2
:1040D00080B200900819401C83B21546101B82B2B2
:1040E0000E46081B81B2089F404600F027FA0028C0
:1040F00006D023462A4631464046009700F004FC8D
:10410000BDE8F8832DE9F84F83460A9E9A46901938
:1041100080B201EB0A04009015460F46A3B2584640
:1041200000F00CFA00282FD04FF0000953462A4621
:1041300039465846CDF8009000F066F8022E23D399
:10414000B61E360405F10105360CADB214D04FF0A1
:10415000010833462A4639465846CDF8008000F01B
:1041600053F8641EA1B233462A465846CDF8008063
:1041700000F04AF8A81985B253462A4639465846EF
:10418000CDF8009000F040F8BDE8F88F2DE9F0413F
:10419000044690F870001F4615460E4630B10128BF
:1041A00009D002280CD0032815D10FE0E16D20467C
:1041B0008847284408E0E16D20468847301A09E026
:1041C000E16D20468847281A85B204E0E16D20465B
:1041D0008847304486B22846A4F86460A4F8660094
:1041E00039460025204600F06BFD010003D0204633
:1041F00000F096FC85B22846BDE8F08138B5002471
:10420000009400F001F838BD3FB581B0044690F845
:104210008C00089900283AD0BDF81000002836D04C
:10422000012811D9022902D0032907D00CE0BDF8DA
:104230000820101A401CADF8080005E0BDF80C205D
:10424000101A401CADF80C0011F0010521D0B4F893
:104250004810BDF80800814219D8B4F84A108142CC
:1042600015D9B4F84E30B4F84C2004A90DF10C0067
:1042700000F09AFA00280AD00095206BBDF81030A3
:10428000BDF80C208568BDF808102046A84705B089
:1042900030BDB4F84C10BDF80C008142F7D8B4F82A
:1042A0004E108142F3D9B4F84A30B4F8482004A93A
:1042B00002A8DDE72DE9FF4F81B090F89270DDF89C
:1042C00038801D460E4681468FB1002082460398F5
:1042D000039A401C80B20090701983B2484600F0E7
:1042E0002DF9002839D001244FF0000B31E00120D6
:1042F000ECE700BF98F80000204000230CE05B1CB6
:10430000761C61009BB2B6B211F0FF0402D1012409
:1043100008F101086D1EADB255B198F8001001EA20
:10432000040110B10029EAD103E00029E7D003E03D
:1043300010B189F8927004E099F8910048B989F8B1
:1043400092A0F01A81B2CDF800B04846039AFFF768
:104350005BFF002DCED189F8927005B0BDE8F08FDB
:1043600008B5B0F84C30934210D8B0F84E309342B4
:104370000CD9B0F848308B4208D8B0F84A308B429C
:1043800004D9002300930123FFF73EFF08BD2DE968
:10439000FF4F83B01F46DDE910A402EB0A06B0B25E
:1043A000CD19009090468946ABB2039800F0C6F84C
:1043B00000285CD009EB04001FFA80FB08EB040026
:1043C00081B2281B401E85B2301B401E80B2CDE951
:1043D000010102200A460090234659460398FFF740
:1043E00071FE01200090DDE9022023462946FFF7F7
:1043F00069FE0420009023465946019A0398FFF76E
:1044000061FE0820009023462946019A0398FFF791
:1044100059FE0BF101011FFA81FB0299381B491C5F
:10442000001B80B289B20291032811D3801E86B28C
:10443000601C85B233464246594600950398FFF703
:10444000FFFD334600955946019A0398FFF7F8FDA2
:10445000AAEB0400001B80B2032808D3801E80B2A0
:104460000090DDE902203B464946FFF7E9FD07B031
:10447000BDE8F08F30B4024C446030BC00F0EEBABE
:104480001150000830B4024C446030BC00F0E6BA71
:10449000D953000838B501240094FFF7B5FE38BDA4
:1044A0002DE9F84F8246DDE90A57D81DC0F3CC0844
:1044B000501980B21C460090081983B216468946EE
:1044C000504600F03BF800280ED00BE02346324661
:1044D000494650460097FFF7EDFE761C6D1E474497
:1044E000B6B2ADB2002DF1D1BDE8F88F10B50446DB
:1044F00090F8930010B12046FFF78AFD2046BDE8F2
:104500001040002100F05AB810B50446084B094A83
:10451000094900F0B1F8204600F037FD002120469F
:1045200000F043FD2046BDE81040FFF77ABD0000D3
:10453000E94E00084D500008D4AC000870B50D4697
:104540001E460446B0F84E10B0F84C00049B00F034
:1045500014FC002809D0B4F84A10B4F848003346D7
:104560002A46BDE8704000F008BC70BD70B5044636
:1045700000F093FC94F8390094F838100844C5B260
:104580002068407CA84204D8204600F006FD0020A8
:1045900070BD94F8930010B12046FFF739FD29460D
:1045A000204600F00BF8012070BD10B5044600F065
:1045B00074FC2046BDE8104000F0EFBC10B5044686
:1045C00080F83910006B016820468847206B4168ED
:1045D0002046BDE81040084780F89210032902D316
:1045E000012180F89210704710B50446806D884212
:1045F00009D004F17400A16500F01AFC2046BDE862
:10460000104000F055B810BD0149C1657047000069
:10461000D34A00080021A0F85010A0F854104FF61B
:10462000FF71A0F85210A0F85610016B49680847B6
:1046300070B5044600250498A565E362616384F8BB
:10464000382084F8395084F86D5084F8915084F8FB
:104650008D50012184F8921084F893102063016832
:10466000204688472046FFF7D5FF2046FFF7CCFFBE
:1046700084F8705070BD00007CB50C460093134662
:104680000546084A084900F098FC01A800F0CAFB5A
:104690000146064B00949DF804202846FFF7C8FF0A
:1046A0007CBD00006951000891520008954D00083A
:1046B00010B5816D00291AD090F9813080F88E30C4
:1046C00090F9822080F88F2090F88D1000290ED06C
:1046D00001290DD090F97E4090F980100C449C4245
:1046E00001DD80F88E408A4201DD80F88F1010BD18
:1046F00090F983108B4201DA80F88E1090F98410C3
:10470000F1E72BB1012B05D0022B06D0104402E0BB
:10471000084400E0801A80B27047401AFBE72BB1D2
:10472000012B05D0022B06D0401A02E0104400E015
:10473000084480B27047801AFBE738B50446B0F8E9
:1047400056000090B4F85230B4F85420B4F8501029
:104750002046FFF7F3FE18B3012084F88C00B4F86C
:104760004810B4F85000814201D2A4F84800B4F8CF
:104770004A10B4F85200814201D9A4F84A00B4F8B2
:104780004C10B4F85400814201D2A4F84C00B4F8A3
:104790004E10B4F85600814201D9A4F84E0038BD3D
:1047A000002084F88C0038BD30B504880D8825447D
:1047B000ADB2AC4205D99C4202D25D1EADB200E062
:1047C00014469C4201D2954201D8002030BD94424B
:1047D00000D214469D4200D91D460480281B088043
:1047E000012030BD2DE9FF4FC3F1010083B006B2B7
:1047F00058429146DDF840A040008B4601271C46F8
:10480000CDE9009A00250FFA80F85B46224629463A
:1048100015E0002E08DB08F102000FFA80F8641E94
:1048200006EB0800A4B206B26D1CBF1C3FB2CDE976
:10483000009AADB2F01906B25B46224629460398AB
:1048400000F005F8A542E4D307B0BDE8F08F2DE9EC
:10485000FF4F83B00E46DDE9108703EB06000290A0
:104860001546A8EB0600019003EB05001C46F9076E
:10487000A8EB050B00900DD002981FFA8BF281B2C5
:104880000398FFF76DFD019882B2009881B20398FA
:10489000FFF766FDB907A4EB060AA4EB05090DD5E1
:1048A0001FFA8BF21FFA8AF10398FFF759FD01985E
:1048B0001FFA89F182B20398FFF752FD08EB050455
:1048C000390708EB06050BD50298A2B281B203980E
:1048D000FFF746FD0098AAB281B20398FFF740FDAA
:1048E00078070ED5A2B21FFA8AF10398FFF738FDB8
:1048F000039807B0AAB21FFA89F1BDE8F04FFFF79D
:104900002FBD07B0BDE8F08F2DE9FF4FC3F10100C7
:1049100083B006B258429146DDF840A040008B4675
:1049200001271C46CDE9009A00250FFA80F85B4666
:104930002246294615E0002E08DB08F102000FFA96
:1049400080F8641E06EB0800A4B206B26D1CBF1C02
:104950003FB2CDE9009AADB2F01906B25B462246ED
:104960002946039800F005F8A542E4D307B0BDE856
:10497000F08F2DE9FF4F83B0164610980F46A0EB3D
:10498000060B03EB070001901098DDF84490A0EBB4
:10499000070098465FEAC97103EB060A02F10105B8
:1049A00007F1010400900FD00198ABB281B21FFA59
:1049B0008BF20398FFF76EFD0098A3B282B21FFA44
:1049C0008AF10398FFF766FD5FEA8971A8EB070794
:1049D000A8EB06060DD5ABB21FFA8BF2B9B203985D
:1049E000FFF758FD0098A3B282B2B1B20398FFF767
:1049F00051FD5FEA09700DD50198ABB281B2109AF2
:104A00000398FFF747FDA3B21FFA8AF1109A0398A3
:104A1000FFF740FD5FEA49700ED5ABB2B9B2109A0C
:104A20000398FFF737FD109A039807B0A3B2B1B20D
:104A3000BDE8F04FFFF72EBD07B0BDE8F08F38B5E9
:104A4000C58F049C0094521BC46A92B2A04738BD23
:104A500038B5049C0094FFF7F2FF38BD2DE9F0470C
:104A60001C4691468846064600F0B2FC00254FF6EB
:104A7000FF7772682178304690470346B84225D0C8
:104A8000641CA3F57F40FE38F3D04A4641463046C9
:104A9000FFF77CFB96F8701031B1012907D002298D
:104AA00008D003290FD10AE008EB000104E009EB6C
:104AB000000106E0A8EB00011FFA81F803E0A9EB72
:104AC00000011FFA81F9284485B2D2E72846BDE8E3
:104AD000F0870020704710B50C4600F006F8012260
:104AE000641EA240801A40B210BD30B50568047B38
:104AF0002A78E2406318DBB2082B09D36D1C0560ED
:104B00002D78C4F10804A5401543083BEAB2DBB296
:104B100001248C40641E14400373204630BD000005
:104B20002DE9F843054600F1600400F00CF915F991
:104B30006B6F2046E97BFFF7CEFF8146297C20463C
:104B4000FFF7C9FF0746697C20466B3DFFF7C3FFAF
:104B5000804694F90A00002857DDF019404247B218
:104B6000237CA0883A464946FFF7CBFDA080237CF2
:104B70003A46E0884946FFF7D2FDE080A188277CCD
:104B800002460B4637B1012F0AD0022F40D0032F27
:104B90000FD146E094F90A7030443B449BB207E0E1
:104BA000891B491C94F90A705B1C89B29BB238447A
:104BB00080B200902846FFF7C1FC30B3002020727D
:104BC00084F8090095F876102046FFF78EFF81469D
:104BD00095F877102046FFF788FF074600224946E0
:104BE000284600F027F801223946284600F022F82E
:104BF00001212046FFF779FF0028EFD194F9090041
:104C0000B042DFDBA07B85F892004046BDE8F88328
:104C100094F90A705B1CC91B491C89B29BB2921B98
:104C200004E094F90A7033449BB2D21B521C92B236
:104C3000401CBDE72DE9F74F84B00D46049C94F865
:104C4000687094F869806034A07AC01BC6B201967F
:104C5000B54200D201954FFA88F279B2A088B4F833
:104C600006B0237C92468946FFF74BFD0290237CD9
:104C7000524649465846FFF752FD0246069808B18B
:104C8000A17B02E0607B50B9E17B049880F8921030
:104C9000207C0090DDE901310498FFF7B5FAB542B8
:104CA00007D3A81BC5B208F10100002700F0FF08D8
:104CB000CAE77819207284F8098007B0BDE8F08F40
:104CC00070B50D460146806D1730FF2D10D8612D4F
:104CD00002D3B1F8881003E0412D02D3B1F8861059
:104CE0000844417819B30278AA42F9D1801C70BDFA
:104CF000B1F88A100C1826460021304600F019F849
:104D000004440221304600F014F8361DA842F3D3C3
:104D10004FF6FF72207802EA00216078084306D03F
:104D2000A84201D1E01C70BDA0780444F2E7002045
:104D300070BD08444FF6FF720178407802EA012105
:104D4000084480B2704730B5054600F16004016642
:104D50000020207315F8781F2046FFF7C6FEA072CA
:104D600069782046FFF7C1FEE072A87EA07310B1FB
:104D70000020E07330BD0120FBE78A4205D2834268
:104D800001D89A4203D9012070478342F9D8002004
:104D900070470000F0B502F007060124B44000257A
:104DA00090F892E0E7B2DDF814C02C46BEF1010F96
:104DB00001D83D4600D03C46076822F00702BCF10E
:104DC000000F3F7C07FB02F7BAB2476B3A4411442D
:104DD00009D108785B1E284360401B0401F8010BD1
:104DE0001B0CF6D1F0BD0A78761C2A436240A3F171
:104DF00001030A7016F007069BB206D06A06150E6C
:104E00006206140E002BEED1F0BD428F114490F8D3
:104E10009220012A03D800BF4FF00105F2D04FF0D5
:104E20000104EFE70821017000487047BD2500200C
:104E300070B5054608782870487868708878A8703A
:104E4000C878E870087928714879687188790C46C3
:104E5000A871E079E871207A2872607A6872A07A85
:104E6000A872E07AE872207B2873607B6873A07B6D
:104E7000A873E07BE873207C287411212046FFF79B
:104E800058FF688213212046FFF753FFA88215219F
:104E90002046FFF74EFFE88270BD2DE9F843064635
:104EA00090F8387090F83950006800244FF6FF7879
:104EB00090F81190316830462A460B7C716B04FBE8
:104EC00003FC1FFA8CFC08EACC0C61440091002121
:104ED00000F04CF8641C6D1CE4B2EDB2BC4201D28F
:104EE0004D45E7D3BDE8F88310B51046282905D015
:104EF000292901D0002010BDFCF78AFA012010BD3D
:104F0000F0B590F838204FF6FF75036805EAC20146
:104F10008187197C05EAC101418790F8394005EA8B
:104F2000C401C1875E7CA718B74201D9321B92B277
:104F300005EAC20220F8401F11444180998A81800D
:104F4000D98AC180F0BDFFF7DBBF0021A0F848106F
:104F5000B0F84410A0F84A10B0F84010A0F84C1077
:104F6000B0F84210A0F84E10FFF7E7BB1CB58DF863
:104F700005108DF80620049C8DF804300094012261
:104F800084686B460F21A0471CBD30B484680023A1
:104F9000A44630BC1A460A21604730B48468002316
:104FA000A44630BC1A461021604730B48468002300
:104FB000A4460A4630BC0B2160472DE9F041154656
:104FC0000E460446069F00F009F86761A660C4E932
:104FD00003532046BDE8F04100F012B8002140F82C
:104FE000081B064A026042608260C260C176817717
:104FF0000161FF21017780F8201070479553000868
:1050000030B484680023A44630BC1A4609216047A6
:10501000080001D00A2801D14FF6FF70704730B464
:1050200004690023A44630BC1A461921604713B511
:105030000122046901AB1721A0471CBD30B40469EB
:105040000023A44630BC1A461821604738B5154CD9
:10505000182918D004DC142922D0172904D105E01E
:10506000192913D020291BD0002038BD0E4907E094
:10507000A07813F8015B0D54401C521EA070D2B2F0
:10508000002AF5D10CE00020A07009E04FF48071F7
:10509000009190F82410A378034A0448FCF796FB8B
:1050A000012038BDFC000020BD2900207C0100202B
:1050B00030B4C4680023A44630BC1A4619216047A6
:1050C00030B4C4680023A4460A4630BC16216047A9
:1050D00030B4C4680023A4460A4630BC152160479A
:1050E00030B4C4681346A4460A4630BC1721604752
:1050F000F8B50C464FEA000514F8011B182924D016
:105100000EDC152919D0162917D0172923D120789C
:105110008DF800006A4601212846FFF7E1FF0AE00A
:10512000192912D0FE2916D122788DF800202921C4
:10513000284600F031F9641CDEE722788DF8002063
:10514000EE6800232846B047F5E70023EE681A46CC
:105150002846B047D0E7F8BD30B4C4680023A44661
:1051600030BC1A46182160472DE9F041DFF8B080C5
:1051700014460646A1F11402002798F800001D46C7
:10518000062A4AD2DFE802F02F03161B3E4310B175
:105190003046FFF744FF3046FFF750FF002130460E
:1051A000FFF745FF21463046FFF741FF012088F811
:1051B000000029E021463046FFF739FF24E050B1D6
:1051C0003046FFF72CFF06E01821304600F0EAF8E1
:1051D000183CE4B21835182C2A46F5D8214630463A
:1051E00000F0E0F80EE096F82400FF2802D17820C5
:1051F00086F8240037692B4622463046BC46BDE877
:10520000F041604788F800700120BDE8F081002877
:10521000F8D03046FFF703FFF4E70020F5E7000081
:10522000FF00002070B50023456904461A46282176
:10523000A8470023E5681A4614212046A847012202
:105240004B21204600F0A8F8206829210279204649
:1052500000F0A2F800224B21204600F09DF82068C3
:1052600029210279204600F097F801224B2120469F
:1052700000F092F82068292142792046BDE870406C
:1052800000F08AB80160897C80F822107047000025
:1052900070B50C46054600F019F888B9092C0BD0FA
:1052A0000A2C01D0002070BD2846FFF7BBFF05493E
:1052B0002846FFF71DFF03E003492846FFF7E2FFFA
:1052C000012070BD06AD000808AE00082DE9F041D0
:1052D0001E46144605460B2908D00D290ED00E296E
:1052E0001ED00F2927D00020BDE8F0811AB128492F
:1052F000FFF7FEFE4AE02649491FF9E74AB1244973
:105300000C31FFF7F5FE286890F8130085F82200AD
:105310003CE01F49491DFFF7EBFE2868807CF5E75C
:10532000FFF71AFF81212846FFF7D2FE21462846C3
:10533000FFF7C6FE27E0FFF70FFF707995F8221000
:1053400001EBC000C7B240212846FFF7C1FE102084
:1053500040EA17112846FFF7BBFE07F00F01284669
:10536000FFF7AEFEB07940F0B0012846FFF7A8FE87
:1053700030793268C006010E2846FFF7B1FE641E80
:1053800014F0FF04F4D12846FFF792FE0120ABE7AA
:10539000E5AC00080020704730B444690023A446FF
:1053A00030BC60472DE9F04115460E460446FFF734
:1053B00045FE40212046FFF73AFE27692B4632463C
:1053C00017212046B8472046BDE8F041FFF727BE29
:1053D000002180F82610704730B54FF6FF72A9B350
:1053E0000A293FD090F82630541E7BB15B1E13F083
:1053F000FF0380F82630058C01F03F0102EA851298
:1054000042EA010202842DD0204630BDFC2905D39A
:10541000052280F8262001F001011FE0F82905D3BC
:10542000042280F8262001F0030117E0F02905D3BB
:10543000032280F8262001F007010FE0E02906D3BF
:10544000022280F8262001F00F0107E00AE0C029BF
:1054500006D3012280F8262001F01F010184D3E742
:10546000084630BD104630BDD0E9013201699A606E
:10547000D0E901235A604A68824201D182684A60B9
:10548000002202610868401E08600868704700003A
:1054900001488068704700004400002000F10801C6
:1054A0004FF0FF32C0E90112C160016100210160CB
:1054B000704700210161704730B50B685A1C02D05B
:1054C00000F1080202E0026904E0224654682568FF
:1054D0009D42FAD953684B6099608A6051600861B7
:1054E0000168491C016030BD42684A6093688B6066
:1054F00093685960916008610168491C01607047B8
:10550000BF2080F31188BFF34F8FBFF36F8F024826
:105510000168491C01607047980000200349086831
:10552000401E086001D180F3118870479800002068
:1055300070B500281BD0A0F108046068002816DAB6
:105540002168002913D120F00040606000F048F984
:10555000074D60686968084468602046FEF726FBCE
:105560002869401C2861BDE8704000F091BC70BD06
:105570009C0000204FF0E020002101618161024980
:1055800041610721016170473F19010070B515465F
:105590000E460446FFF7B4FF94F944100020491C5E
:1055A00001D184F8440094F94510491C01D184F8D4
:1055B0004500FFF7B3FFA06B28B92A46314604F136
:1055C000240000F023F82046BDE87040FEF76CBCD4
:1055D00002490A6A0260C9684160704744000020BD
:1055E00001490120C86170474400002010B50C46F5
:1055F000054909681831FFF75FFF2046BDE81040F4
:105600000121FEF723B9000044000020F0B40C464D
:105610000D4943680D68EB619D680E6835620D6841
:105620009E68183575600D6818359D600968886238
:105630000168491C01600AB14FF0FF342046F0BCFC
:105640001146FEF703B900004400002070B5214D5B
:105650000446286884423CD0002C3AD0FFF750FF23
:105660002046FEF7FFFB80B3201DFFF7FDFEE06A3A
:1056700001212A69814011432961174900EB80000B
:1056800001EB80004068A0608268E2608368221DB0
:105690005A608260E06A00EB800001EB800060618C
:1056A000E06A00EB800051F82020521C41F82020D5
:1056B000E06A2968C96A884207D308494FF08050D8
:1056C0000860BFF34F8FBFF36F8FBDE87040FFF7E7
:1056D00025BF70BD44000020A802002004ED00E0BA
:1056E0007CB511480025CDE900502B4680220FA142
:1056F000104800F093FA0C4C2C3C012812D100F019
:105700007BFC01280ED1BF2080F31188BFF34F8F9F
:10571000BFF36F8F4FF0FF30A06201206061E56042
:1057200000F088F8206B7CBD7000002049444C4597
:1057300000000000DD3A000870B50446FFF7E0FE07
:10574000234D04B92C68201DFFF78EFE58B9E06A7E
:10575000204A00EB800152F8211021B9012181403B
:10576000286988432861A06A18B104F11800FFF77E
:105770007BFE211D1848FFF7B7FE94F8480000266D
:10578000012801D184F84860FFF7C8FE686928B194
:10579000FFF7B6FEFEF72CFBFFF7C0FE2868844239
:1057A00009D1686940B10D494FF080500860BFF3DE
:1057B0004F8FBFF36F8F70BD07480068A96888429C
:1057C00001D12E6070BDBDE8704000F011B800003E
:1057D00044000020A80200207805002004ED00E02D
:1057E0000248416B491C416370470000440000209F
:1057F0000E48416B11B10121C16170470021C161A7
:1058000001690B4AB1FA81F1C1F11F0101EB81017C
:1058100002EB810101F108034A6852684A609A422A
:1058200001D152684A60D16801607047440000208D
:10583000A8020020094810B5016841F47F01016009
:10584000016841F07F410160FFF794FE04490020A8
:105850000860FAF7ABFC002010BD000020ED00E06E
:105860009800002010B5BF2080F31188BFF34F8F40
:10587000BFF36F8F00F014FA18B104494FF0805055
:105880000860002080F3118810BD000004ED00E0E6
:1058900070B50E4605004FF0000418D0601EB0FB36
:1058A000F5F0B04213D305FB06F010F1490F0ED806
:1058B0004830FEF72FFB040009D004F148012046D0
:1058C0003EB10160C0E90F56012100F005F8204605
:1058D00070BD0060F6E700002DE9F0410F460400BE
:1058E0004FF001063CD0E06BC8B3B51EB5FBF0F13C
:1058F000206C814234D3FFF703FED4E90F202168E6
:1059000002FB0011A1600021A163216861600A46C9
:10591000D4E90F01401E00FB01212046E16000F8A0
:10592000445F457004F110004FB1FFF7B7FD04F17B
:105930002400FFF7B3FD00BFFFF7F0FD11E0216980
:105940000029F9D000F03EFA0028F5D006494FF0C2
:1059500080500860BFF34F8FBFF36F8FECE7FFE716
:1059600000263046BDE8F08104ED00E02DE9FF4758
:1059700000273B4E82B099468A460446B8464FF00F
:10598000805500BFFFF7BCFDA06BE16B884206D3DA
:10599000B9F1020F03D00498C0B1D7B11DE04A4657
:1059A00051462046FEF741F8616A19B104F124001E
:1059B00000F008FA20B13560BFF34F8FBFF36F8F4F
:1059C000FFF7ACFD012006B0BDE8F087FFF7A6FDAC
:1059D00021E06846FFF7FCFD0127FFF79FFDFFF779
:1059E000FFFEFFF78DFD94F94400401C01D184F8BF
:1059F000448094F94500401C01D184F84580FFF7AC
:105A00008DFD04A9684600F0DDF830B12046FEF7B0
:105A10004BFA00F03DFA0020D5E7FFF771FDA06BCF
:105A2000E16B884213D1FFF779FD04F1100004996E
:105A3000FFF7DCFD2046FEF737FA00F029FA0028D0
:105A4000A0D13560BFF34F8FBFF36F8F9AE7FFF799
:105A500065FD2046FEF728FA00F01AFA92E70000EA
:105A600004ED00E02DE9F04104461746BF20EFF3B6
:105A7000118680F31188BFF34F8FBFF36F8FA26B36
:105A8000E06B824206D3022B04D0002086F31188FB
:105A9000BDE8F08194F94550A06B1A462046FDF709
:105AA000C4FF681C08D0FFF7F3FC854202D26D1CCE
:105AB00084F845500120E9E7606A0028FAD004F133
:105AC000240000F07FF90028F4D0002FF2D001204C
:105AD0003860EFE72DE9F7470026DFF8E48083B070
